:020000040000FA
:0600000057EF70F0120042
:06000800A7EF5EF01200FC
:06001800A7EF5EF01200EC
:0E0032000300E0E00000A80000000200000053
:10004000DEE00000FE09000002000000DCE000002D
:08005000FC09000002000000A1
:080058007DC914F0149E156A25
:10006000166A176A145015101610171001E1000CCB
:10007000010CACEC20F0010EE66E6EEC1CF0E552CB
:100080000E0EE66EE66A320E146ED00E16EC21F0FD
:10009000D20EE66E0C0E9DEC20F002E2E16AE55213
:1000A000E16E17503C0E0C01D21902E1A50ED319D6
:1000B00003E096EC1AF005D0180ED55D02E00A01B7
:1000C000A98BDF6A050EDF5C0FE2DF50030DF3CF73
:1000D000E9FFF4CFEAFFD50EE926090EEA22ABECE0
:1000E00023F0EF6ADF2AEED7DF6A060EDF5C04E258
:1000F0001EEC21F0DF2AF9D7E5524AEF1DF013EC90
:100100001DF0610EE12402E3E168E652E16E9EEC2F
:100110006EF0060E06C0DBFF070E07C0DBFF080E01
:1001200008C0DBFF090E09C0DBFF09017DA539D03E
:10013000A5EC20F08F51EE5C146E9051EE58156EC8
:100140009151EE58166E9251EE58176E93C918F0F1
:10015000196A1A6A1B6A360E0B6E6E0E0C6E010E51
:100160000D6E0E6A93C906F019C007F01AC008F0A8
:100170001BC009F0D2EC6FF002C018F003C019F0F8
:1001800004C01AF005C01BF01450025C155003584F
:10019000165004581750055804E20A01BD91090190
:1001A0007D95FD0EDB5002E071EF05F00A01A9B16B
:1001B00017EF14F009017DA1BAD10B0EDB6A070E0F
:1001C000F36E0B0EB4EC1DF001E39DD1AAEC1EF012
:1001D00001E196D1B1EC23F0EECF1CF0EECF1DF093
:1001E000EECF1EF0EFCF1FF0A5EC20F000011C5069
:1001F000EE5C186E1D50EE58196E1E50EE581A6EB9
:100200001F50EE581B6E18C006F019C007F01AC038
:1002100008F0096EC0EC6AF007C014F008C015F0D1
:1002200009C016F00AC017F0810E0C6ECB0E0D6ED1
:10023000A40E0E6E470E0F6E42EC6BF0010A0BE13E
:1002400091EC20F025EC1DF00B0E32EC23F00B0EA0
:10025000FDEC1DF055D1D0EC22F0200B01E050D187
:100260000A0EDB94DB9211EC23F0EF5018086FE0DC
:1002700011EC23F00C0EEFCFDBFFDB50FF0817E192
:1002800091EC20F058EC23F05AEC1DF0D20E145CE7
:100290008E0E1558000E1658000E175852E3E3EC58
:1002A0001FF0DB82F0EC22F00C0EDB6A4AD00C0E61
:1002B000DB5044EC20F002E2E16AE55269EC21F007
:1002C000D0A322D091EC20F05BEC23F0FC0EEE18D2
:1002D00002E1FF0EED1818E091EC20F05BEC23F04A
:1002E000FD0EEE1806E1FF0EED1803E1D051010BF3
:1002F0000BE091EC20F0050ED4EC20F01450C9195D
:1003000007E11550CA1904E17CEC23F0EF6A0DD027
:10031000D0B10BD0040EC9CCDBFF050ECACCDBFF7D
:100320000A0EDB847CEC23F0EF900C0EDB2AA2ECAF
:1003300021F0040B06E1180EF36E0C0EB4EC1DF068
:10034000B6E311EC23F00C0EDBCFEFFF45D00A0E25
:10035000DB800A01826B0C0EDB6A180EF36E0C0E4A
:10036000B4EC1DF008E27CEC23F0EF50010B03E14C
:100370000C0EDB2AF2D70C0EDB50180829E00A011C
:10038000F00E826FD0EC22F00F0B000921E0B1ECEF
:1003900023F05AEC1DF0360E145C6E0E1558010E4B
:1003A0001658000E175812E30A0EDB90E3EC1FF00C
:1003B000D0EC22F00F0BE806E8500F0BF36EF46E52
:1003C000F00E97EC1FF0F0EC22F002D00A0EDB905A
:1003D000A2EC21F0010B32E1A2EC21F0040B01E1CF
:1003E0008FD02E0EF36E0D0EF3CFDBFFA2EC21F0BB
:1003F000020B35E091EC20F0050ED4EC20F00A0160
:10040000D55114182CE1D651151829E10D0EDB6ACF
:100410002E0EF36E0D0EB4EC1DF009E20D0E2EEC57
:1004200021F0EE52EF5003E00D0EDB2AF1D70D0E56
:10043000DB502E0814E10A01F10E826F15EC23F057
:10044000EFCF9CFA91EC20F006EC21F0EF8AD0EC93
:1004500022F0100B02E117EF14F047EF12F015EC49
:1004600023F0EF50A7EC23F091EC20F0040E35ECD4
:1004700023F0050EDEEC20F091EC20F0050E35ECBB
:1004800023F0070EDEEC20F091EC20F0070E35ECA7
:1004900023F0090E35EC23F00A0E70EC20F0DF6A31
:1004A00091EC20F028EC1EF091EC20F0ABEC23F066
:1004B000EF50DF5C08E2F4EC1CF001E3DB2A8FEC88
:1004C00022F0DF2AF1D7A0EC20F0F1EC1DF094EC43
:1004D0001DF00D0EDB502E0802E105EF15F00D0E9C
:1004E0002EEC21F0DFCFEFFF15EC23F0EF50E66E9E
:1004F0000D0E2EEC21F0EE5246EC1DF005EF15F03E
:100500000B0EDB2A5CD60B0EDB6A070EF36E0B0EAE
:10051000B4EC1DF006E2AAEC1EF003E10B0EDB2AA0
:10052000F4D70B0EDB50070802E109017D910901A8
:100530007DA3DBD10E0EDB6A030EF36E0E0EB4EC60
:100540001DF001E393D00E0EB9EC1DF001E18BD04C
:100550000E0E38EC23F001E186D03CEC23F0080BC2
:100560000EE10E0EEEEC20F05AEC1DF0040E145CC1
:100570005D0E1558000E1658000E175827E23CEC79
:1005800023F0080B70E00E0EEEEC20F0EECF20F022
:10059000EECF21F0EECF22F0EFCF23F0A5EC20F04C
:1005A00000012050EE5C1C6E2150EE581D6E225052
:1005B000EE581E6E2350EE581F6EA50E1C5C1D0ECD
:1005C0001D58010E1E58000E1F584DE30E0E94ECE0
:1005D00020F028EC1EF0DF6A060EDF5C08E2F4EC87
:1005E0001CF001E3DB2A8FEC22F0DF2AF5D7DF6A6B
:1005F000080EDF5C07E2F4EC1CF001E3DB2A7DEC83
:1006000020F0F6D70E0E81EC20F0EF963CEC23F0B4
:10061000070BE806E850070BF36EF46EF80E97EC44
:100620001FF00E0EEEEC20F0060EDBCFEEFF070EF5
:10063000DBCFEEFF080EDBCFEEFF090EDBCFEEFFC8
:100640003CEC23F0070B000902E0FFEF14F00E0E64
:1006500094EC20F025EC1DF00E0E94EC20F0EE6AE8
:10066000ED6AFFEF14F00E0EDB2A66D70E0EDB6A82
:10067000030EF36E0E0EB4EC1DF03BE20E0EB9EC61
:100680001DF034E00E0ED3EC1CF05AEC1DF0D880B7
:100690001C0E14544E0E15540E0E1654000E175404
:1006A00025E20E0EAFEC20F002E2E16AE552E16EC7
:1006B00017500C01E40509E1020EE46F6BEC1DF02C
:1006C00002E2E16AE552E16E14500E0E38EC23F0BE
:1006D00005E00E0E94EC20F025EC1DF00E0E97ECCC
:1006E00020F025EC1DF00E0EE0EC1EF00E0EDB2AC5
:1006F000BFD7DF6A060EDF5C01E3BDD047EC22F016
:1007000001E1B7D00F0EDB6AD950100F81EC1DF05C
:10071000FEEC20F085EC20F0050EBFEC20F075EC2F
:100720001FF002E2E16AE552A2EC1EF066E0100E54
:10073000DB5059E1BEEC22F01DE112EC20F01AE191
:100740000F0EDB6A2E0EF36E0F0EB4EC1DF009E2F5
:100750000F0E2EEC21F0EE52EF5003E00F0EDB2ACD
:10076000F1D70F0EDB502E0805E15EEC23F0F10E01
:10077000826F46D085EC20F028EC1EF0010EDB6A7B
:1007800085EC20F0ABEC23F0EF5052EC21F009E2C5
:10079000F4EC1CF001E3DB2A8FEC22F0010EDB2AE3
:1007A000EFD7D950010F3AEC21F0BEEC22F018E15E
:1007B00012EC20F015E10F0E2EEC21F0010EDBCF34
:1007C000EFFF85EC20F078EC20F05BEC23F0EF50AD
:1007D000E66E0F0E2EEC21F0EE52E552E750EF6E72
:1007E000B4EC23F03ED0100EDB50020842E1BEEC28
:1007F00022F00CE112EC20F009E15EEC23F0826BB8
:10080000F5EC22F0FAEC21F043EF12F0A6EC1EF02A
:1008100059EC20F085EC20F0030EDEEC20F085ECA6
:1008200020F0030EC7EC22F085EC20F0050E83ECDF
:1008300022F085EC20F0050E40EC23F075EC20F062
:10084000D950010F81EC1DF085EC20F0030EBFECB8
:1008500020F094EC1DF0B4EC23F085EC20F0EE6A6F
:10086000ED6AEA6ADF3489EC20F0FAEC21F005EF5A
:1008700015F0DF2A3FD72FEC1EF00A0EDF5C1BE2DB
:1008800000EC1DF002E2E16AE552E16E1750020E43
:100890000C01E45D0DE1030EE46FE269E3696BECCA
:1008A0001DF002E2E16AE552E16E14509DEF14F092
:1008B00036EC1EF0E2D7DF6A060EDF5C05E247EC9D
:1008C00022F002E1DF2AF8D7060EDF5C0EE1DF6AD4
:1008D000030EDF5C05E2A6EC21F002E1DF2AF8D787
:1008E000030EDF5C02E109017D9309017EAF1FD099
:1008F000A5EC20F0D151EE5C146ED251EE58156E7D
:10090000D351EE58166ED451EE58176ED880000EA3
:100910001454B40E1554000E1654000E175407E26A
:100920000A01CA0E826F88698969A1EF13F07DAF51
:100930001BD07D9F00C982FA01C983FA08C98AFACF
:1009400009C98BFA10C992FA11C993FA12C994FA1B
:1009500013C995FA14C996FA15C997FA16C998FADF
:1009600017C999FA5EEF11F07DA717EF14F07DAD6E
:1009700003D07D9D58EF14F07DBB17EF14F0180ED7
:10098000C35D36E0DF6AC35144EC20F002E2E16A65
:10099000E5529EEC1EF004E054EC1DF0010803E06B
:1009A0000901C32B02D0010EDF6E180E0901C35DD1
:1009B00002E2DF50E8E0DF5025E0C32BDF6A080EDB
:1009C000DF5C03E262EC23F0FAD77FEC23F0A7ECC4
:1009D0001FF0EF869AEC20F0040EEF6E400EDF6EF3
:1009E00009017EB3DF8E7EBB4AEF14F049EF14F0AD
:1009F0007E930C01DD6B2BEC1DF002E2E16AE55207
:100A0000E16E145009017E51020B38E00C01DD51FA
:100A100035E0A5EC20F00901C451EE5C146EC5511F
:100A2000EE58156EC651EE58166EC751EE58176E39
:100A3000D7CC18F0D8CC19F01A6A0C68520E0D6E8B
:100A4000070E0E6ED7CC07F0D8CC08F01AC009F00C
:100A5000F9EC6AF004C018F005C019F006C01AF0ED
:100A60001B6A1ABE1B681450185C15501958165092
:100A70001A5817501B5802E317EF14F009017D8D27
:100A80004BEC22F002E2E16AE552E16E1750DF6AB8
:100A9000080EDF5C03E2A5EC22F0FAD750EC20F060
:100AA000EF68D6EC1CF0FC0EEF6ED6EC1CF0A7EC59
:100AB0001FF0EF889AEC20F0040EEF6EDF6A090158
:100AC0007E51020B08E00C01DD5105E109017E5168
:100AD000040B01E0DF8EA2EC22F0DFCFEFFFFFEF8F
:100AE00014F0FD0EDB50720A02E16FEF14F03B0AC6
:100AF00002E15DEF14F0010A02E158EF14F00F0A71
:100B000002E1DCEF13F0010A02E1C5EF13F0030A82
:100B100002E109EF13F0010A02E1E6EF12F0070A21
:100B200002E1C1EF12F0010A02E1BCEF12F0030A88
:100B300002E170EF12F0720A02E172EF11F0010AA5
:100B400002E167EF11F01C0A02E160EF11F0040A04
:100B500002E14BEF11F0030A02E1C1EF0FF00C0AC2
:100B600002E15FEF0FF0070A02E14DEF0FF03E0ADE
:100B700002E1C8EF0EF0070A02E18BEF0EF0030A64
:100B800002E104EF0EF00E0A02E1D0EF0DF0040ACC
:100B90006EE0030A02E007EF15F0DF6A060EDF5C85
:100BA0003EE2B2EC21F002E1FF0EED1836E037EC48
:100BB0001DF0EE52EF500A019C5D2FE182512BE0B7
:100BC0000A01A66B0A017F0EA76F0A01A98137EC03
:100BD0001DF0EF50E66E59EC20F09FEC23F0010E73
:100BE00070EC20F0E9EC22F0C7EC22F0E9EC22F006
:100BF00083EC22F09FEC23F0010E83EC22F0A0ECBA
:100C000020F0E9EC22F0BFEC20F094EC1DF01EEC9B
:100C100021F005EF15F01EEC21F0DF2ABFD7DF6AC7
:100C20002E0EDF5C08E282EC23F0EF500A019C5D9F
:100C300002E0DF2AF5D72E0EDF5C02E117EF14F099
:100C4000D1EC20F0EF500AE0D1EC20F0EFCF9CFA8D
:100C5000340EF36E110EF3CFDBFF02D0110EDB6A00
:100C6000D1EC20F0EF6A110EDB5008EF15F0080E02
:100C7000F36E1A0EF3CFDBFFEEEC21F0120ECFEC89
:100C80001DF0130ECFEC1DF0140ECFEC1DF0150E61
:100C9000CFEC1DF0160ECFEC1DF0170ECFEC1DF0B3
:100CA000180ECFEC1DF0190EE7CFDBFFD950130F54
:100CB000CBEC1DF0080B10E0DF6A080EDF5C0AE2E7
:100CC0008AEC1EF0DF50EA6AEA0FE96E090E4FEC7B
:100CD00022F0F3D7E9EC1EF0D950130FCBEC1DF046
:100CE000100B10E0DF6A080EDF5C0AE28AEC1EF0EF
:100CF000DF50EA6AF20FE96E090E4FEC22F0F3D7EB
:100D0000E9EC1EF00A01921D01E1931D09E0EAECF5
:100D10001FF0FB0ED880EE54FF0EED5401E3AAD372
:100D2000DF6A070EDF5C22E254EC22F01DE000ECEB
:100D300022F08BEC22F0BBEC23F0ABEC1FF014E1C3
:100D40001750151811E18BEC22F0AEEC23F0EF50A8
:100D5000F36E190EDB50F35C07E1DFCFE6FF6AECC0
:100D60001AF0E55249EF0FF0DF2ADBD707EC22F04B
:100D700001E01ED3D8EC1AF0DF6EDF0401E056D29A
:100D800009017E51010B01E151D285EC1EF005E114
:100D9000D651151802E149EF0FF01B0EDB6A0EEC7D
:100DA00022F001E3DB2A010EEF6EDF6EB3EC1FF0E1
:100DB00008E2E1EC22F001E3DB2A46EC1DF0DF2A39
:100DC000F5D7210EDB50E76E220EE7CFDBFF210EB9
:100DD000DB2A0A019D51DBEC1EF004E6D80E145C00
:100DE000000E155802E2210EDB2A9D51DBEC1EF0AD
:100DF00004E6B40E145C000E155802E2210EDB2A44
:100E00009D51DBEC1EF004E6900E145C000E1558AC
:100E100002E2210EDB2A6C0E9D5D02E2210EDB2A2E
:100E2000480E9D5D02E2210EDB2A240E9D5D02E24A
:100E3000210EDB2A1D0EDBCFE6FF86EC23F0ABECA8
:100E400021F01E0E34EC1FF002E2E16AE552A2EC42
:100E50001EF001E14DD10A01921D01E049D1931D1F
:100E600001E046D1250EDB6A030EF36E250EB4ECCD
:100E70001DF01DE2250EB9EC1DF016E0250ED3EC99
:100E80001CF08CEC21F01E0EDB50145C0DE1250EE5
:100E9000F3EC20F01CEC20F0160EDB50151803E1EB
:100EA000170EDB50161803E0250EDB2ADDD7030EE4
:100EB000F36E250EB4EC1DF03EE29EEC6EF014ECE9
:100EC00022F0250ED3EC1CF097EC1DF0210EDBCFA9
:100ED00014F0250E18EC23F0EF50D880145402E2E1
:100EE00049EF0FF0C8EC20F094EC22F003E1200E63
:100EF000DB50151808E03EEC21F001E179D002EC5E
:100F000021F001E075D040EC4CF00A01A9B117EFD7
:100F100014F0250E1DEC23F0210EEFCFDBFFD9508E
:100F20001C0F81EC1DF0250EABEC21F078EC1FF0CE
:100F300001E348D145D1D950260F81EC1DF0D9509D
:100F4000250F81EC1DF086EC23F0DBCFE6FF7EEC75
:100F50001FF002E2E16AE552A2EC1EF002E149EF65
:100F60000FF0250E22EC23F01E0EDBCFEFFF250E37
:100F7000F3EC20F090EC1EF0C8EC20F0250ED3EC42
:100F80001CF00A0ED4EC20F0160EDB50141803E10E
:100F9000170EDB50151805E0250EE5EC22F00109CF
:100FA00004D0250EE5EC22F00309EF6E250E81EC4E
:100FB00020F0EF86210E94EC22F003E1200EDB50AE
:100FC000151806E03EEC21F013E002EC21F010E1F0
:100FD00040EC4CF00A01A9B117EF14F009EC21F034
:100FE000250EABEC21F078EC1FF001E3EBD0E8D05C
:100FF000010EF36E1B0EF3CFDBFFDB5001E116D1C8
:1010000034EC20F001E012D1250E38EC23F008E199
:101010000E0E7DEC22F0250E94EC20F059EC22F01F
:10102000250E38EC23F002E149EF0FF0D9501C0FE8
:10103000A7EC1DF0250E94EC20F0270EEECFDBFF81
:10104000280EEDCFDBFFDF6AB3EC1FF00EE2F4EC0D
:101050001CF001E3DB2AEF50E66E8CEC1DF001E39F
:10106000DB2A46EC1DF0DF2AEFD7A6EC1EF08CEC55
:101070001DF001E3DB2A46EC1DF038EC20F08CEC8F
:101080001DF001E3DB2A46EC1DF08CEC1DF001E3C2
:10109000DB2A9FEC1FF08CEC1DF001E3DB2AA3ECB4
:1010A0001FF08CEC1DF001E3DB2A3CEC20F08CEC13
:1010B0001DF001E3DB2A40EC20F08CEC1DF001E395
:1010C000DB2ADBEC1FF08CEC1DF001E3DB2A120EB7
:1010D000DBCFEFFF86EC1DF0250EEEEC20F097EC59
:1010E0001DF0250EE5EC22F00409EF6E49EF0FF03C
:1010F00020EC1FF05EEC22F0180822E002EC21F058
:101100001FE18ACA14F08BCA15F0160EDB501418B2
:1011100003E1170EDB50151833E00C01D629E66EFB
:101120009BEC1DF020EC1FF025EC1AF0166E050E5E
:10113000E15C02E2E16AE552E16E1650000920E14D
:101140000A01CE510A018A1902E049EF0FF00A01A3
:10115000CF510A018B1902E049EF0FF0D6CCE6FF20
:101160009BEC1DF0EEEC1FF0176E050EE15C02E249
:10117000E16AE552E16E1750000902E049EF0FF015
:10118000C4EC1EF003E1200EDB5015180AE03EEC23
:1011900021F01CE002EC21F019E1F4EC1FF0020850
:1011A00015E140EC4CF00A01A9B117EF14F009EC7D
:1011B00021F0030EE66E9BEC1DF078EC1FF002E2CE
:1011C000E16AE552E16E145005EF15F067EC23F08B
:1011D00002E1CCEF0DF034EC20F002E0CCEF0DF0AA
:1011E0000EEC22F001E3DB2A8FEC22F0F4EC1CF091
:1011F00001E3DB2ABBEC22F001E3DB2ABBEC22F0AB
:1012000001E3DB2ABBEC22F001E3DB2ABBEC22F09A
:1012100001E3DB2AB7EC23F0DCEC22F06CEC23F0EA
:10122000B6EC21F0F1EC1DF0CAEF0DF0040EDF5C1E
:1012300002E049EF0FF0EEEC21F0290EE7CFDBFFE3
:1012400085EC1EF005E1D651151802E149EF0FF0CB
:10125000180EDB50010850E2D9502A0F63EC22F03F
:1012600002E149EF0FF02A0ED0EC1CF006EC21F061
:10127000EF982A0EDBCFE6FF6AEC1AF0E5522A0E51
:1012800022EC21F02A0E6DEC21F02A0EBDEC21F0AB
:101290002A0EC4EC21F02A0E60EC21F02A0ED0ECCC
:1012A0001CF0040EA9EC20F02A0E32EC21F02A0EDC
:1012B00067EC22F005E12A0E32EC23F02A0EAFD0C3
:1012C000DF6A25EC1FF02A0ED0EC1CF0C2EC1DF0FA
:1012D000040EEF6E19EC1FF02B0E82CADBFF0A0121
:1012E000825108E08AEC1EF025EC1FF02A0EE9EC92
:1012F00020F0F5D709017D819BEC1DF0C9EC1EF0B3
:1013000002E149EF0FF0CAEC1BF040EC4CF00EECA0
:101310001EF002E2E16AE552E16E145028EC21F081
:101320008A0EE66E0A0E41EC21F002E2E16AE55215
:10133000E16E1450DF6A080EDF5C32E20A0EE66EE0
:10134000E66AF4EC1EF0BBEC1FF0E90EE66E0C0E44
:101350009DEC20F002E2E16AE552E16E1750F1CC1B
:1013600014F0F2CC15F0160EDB50141817E1170E1E
:10137000DB50151813E10C01F169F2690A0EE66EF3
:10138000E90EE66E0C0EE66EF4EC1EF03EEC1FF07D
:1013900002E2E16AE552E16E165002D0DF2ACBD7B5
:1013A000290EDBBC56EF14F0DB50200BC3EF0EF020
:1013B000180EDB50010853E2D9502C0F63EC22F0D9
:1013C00002E149EF0FF02C0ED0EC1CF006EC21F0FE
:1013D000EF982C0EDBCFE6FF6AEC1AF0E5522C0EEC
:1013E00022EC21F02C0E6DEC21F02C0EBDEC21F046
:1013F0002C0EC4EC21F02C0E60EC21F02C0ED0EC65
:101400001CF0040EA9EC20F02C0E32EC21F02C0E76
:1014100067EC22F008E12C0E32EC23F02C0EFDECF0
:101420001DF049EF0FF0DF6A19EC1FF02D0E82CA94
:10143000DBFF0A01825108E08AEC1EF025EC1FF068
:101440002C0EE9EC20F0F5D7020EDBCF84FA030E68
:10145000DBCF85FA2D0EDBCF82FA09017D8185EC89
:101460001EF005E1D651151802E149EF0FF0FFEC2F
:101470001FF0FBD207EC22F001E0DED2D8EC1AF02C
:10148000DF6EDF50060A01E1E3D0010A57E0030AEC
:1014900008E009017EA149EF0FF0DF0401E076D1F9
:1014A0007CD4D8EC1AF0DF6E40EC4CF0DFAC34D0DA
:1014B00048EC1FF002E117EF14F009017D870A01E3
:1014C000BD91800EDF1402E0010E01D0000E090173
:1014D0007E93E8B07E837E85C36B7EB302D0180E08
:1014E000C36FFCEC1EF0200EDF1402E0000E01D0F2
:1014F000010E09017E9BE8B07E8B010EC86F200EA5
:10150000DF1402E0010E01D0000E7E9DE8A017EF6F
:1015100014F07E8D17EF14F09BEC1DF0C9EC1EF05B
:1015200002E117EF14F0CAEC1BF00EEC1EF002E221
:10153000E16AE552E16E145056EF14F009017E9F06
:10154000EEEC21F02E0ECFEC1DF02F0ECFEC1DF0A7
:10155000300EE7CFDBFF40EC4CF048EC1FF002E12F
:1015600017EF14F0C60EE66E0A0E09EC1EF0E76ED9
:10157000310EE7CFDBFFDB50180815E0DF6ADBEC4C
:101580001DF0180EDF5C0FE2DAEC1CF002E2E16AFB
:10159000E5529EEC1EF004E054EC1DF0000903E05F
:1015A000F2EC21F0EED7300EDB5007E00A01A997EC
:1015B000300EDBCF82FAA1EF13F02E0EDBCFD5FA7F
:1015C0002F0EDBCFD6FAE6EC57F00C01CF9DCF9F64
:1015D000F2C9C6FAF3C9C7FAF4C9C8FAF5C9C9FA13
:1015E000F6C9CAFAF7C9CBFAF8C9CCFAF9C9CDFAE3
:1015F000160EDBCFCEFA170EDBCFCFFADBCFCAFC4D
:10160000160EDBCFC9FCF2C9C1FCF3C9C2FCF4C998
:10161000C3FCF5C9C4FCF6C9C5FCF7C9C6FCF8C9CA
:10162000C7FCF9C9C8FC19EC1DF002E2E16AE552F9
:10163000E16E14500A01826B2E0EDBCF88FA2F0E5A
:10164000DBCF89FA92EC1FF009017E81A1EF13F044
:10165000010EF36E320EF3CFDBFFD8EC1AF00A0165
:10166000826F40EC4CF0A2EC22F0070EEF6EF20E0F
:10167000E66E090E09EC1EF018081FE10901010EC3
:10168000FC6F73EC15F0000905E0ACEC15F0DF6EB3
:1016900018080FE1A2EC22F0FD0E7AEC22F0EF68C0
:1016A000F0EC1CF0020EEF6E320EDB6A0901FC6BEF
:1016B0000FD012EC15F00901FC6BA2EC22F0C9CCA2
:1016C000EFFFF0EC1CF0CACCEFFFF0EC1CF0EF6A7F
:1016D0004BEC22F002E2E16AE552E16E1750DF6A5C
:1016E000080EDF5C03E2A5EC22F0FAD7DF6A080EF1
:1016F000DF5C09E2D6EC1EF0F20FE96E090EEA2279
:101700007DEC20F0F4D750EC20F0ACEC22F0180E79
:10171000EF6E8BEC23F0320EDB5003E009017D8F7E
:1017200002D009017D9F82CA00F9010E016FC9CC68
:1017300008F9CACC09F9F2C910F9F3C911F9F4C9C9
:1017400012F9F5C913F9F6C914F9F7C915F9F8C969
:1017500016F9F9C917F9170EDB50FB6FFA6B160E65
:10176000DB50FA11FA6FA0EC20F0E66EFBC9E6FF41
:1017700094EC1DF00A018251020B05E08251080B26
:1017800002E005EF15F0858505EF15F0030EDF5C2F
:1017900048E134EC20F045E1A2EC22F0030EEF6EBC
:1017A0008AEC1EF00A0175EC20F0EEEC21F0330E0D
:1017B000E7CFDBFFA2EC22F0330EDBCFEFFFEEEC46
:1017C00021F0340EE7CFDBFFA2EC22F0340EDBCFAA
:1017D000EFFF40EC4CF052EC1FF005E1D65115182C
:1017E00002E10FEF12F0A2EC23F0D950350F81EC9B
:1017F0001DF0FEEC20F097EC1EF075EC1FF002E2FD
:10180000E16AE552A2EC1EF001E00AD167EC23F098
:1018100001E006D10A01A66B0A017F0EA76F17EF40
:1018200014F0020EDF5C01E034D3360EDB6A030EE7
:10183000F36E370EF3CFDBFFD950380FA7EC1DF056
:10184000F4EC1CF001E3DB2A020EEF6E010EDF6EFA
:10185000C3EC1FF008E2E1EC22F001E3DB2A46ECE6
:101860001DF0DF2AF5D7390EDBCFE6FF3D0EDBCFCB
:10187000E6FF3E0EABEC21F03A0E34EC1FF002E234
:10188000E16AE552A2EC1EF001E179D0370EDB6A85
:10189000030EF36E370EB4EC1DF01DE2370EB9ECFB
:1018A0001DF016E0370ED3EC1CF08CEC21F03A0E54
:1018B000DB50145C0DE1370EF3EC20F01CEC20F053
:1018C0003B0EDB50151803E13C0EDB50161803E00D
:1018D000370EDB2ADDD7370EDB50030869E0050E33
:1018E000E66EE66A76EC21F0BBEC1FF0E20EE66EE7
:1018F0000C0E9DEC20F002E2E16AE552E16E175019
:101900000C01E46B370ED3EC1CF066EC21F0EF50C9
:10191000F36E3F0EB4EC1DF00CE2370ED3EC1CF06E
:1019200066EC21F03F0EDBCFEFFF8ACAE5FC8BCAE5
:10193000E6FC1BEC22F076EC21F03EEC1FF002E21C
:10194000E16AE552E16E16506BEC22F03B0EDB5083
:10195000141803E13C0EDB5015182AE0010EF36E5B
:10196000360EF3CFDBFF370E1DEC23F03F0EDBCF3F
:10197000E7FFEF50E7263F0EE7CFDBFF19D06BEC18
:1019800022F0140EDB50141803E1150EDB5015186D
:101990000FE0070E146E3F0EDBCFE7FF1450E72673
:1019A0003F0EE7CFDBFF010EF36E360EF3CFDBFF0A
:1019B000360EDB503BE034EC20F038E140EC4CF0EC
:1019C000370EDB5003080AE0370E27EC23F0040E35
:1019D000EECFDBFF050EEDCFDBFF09D0FEEC20F0F4
:1019E0009BEC1DF062EC1EF002E117EF14F0D950F1
:1019F000380FA7EC1DF0DF6AC3EC1FF008E2F4EC2F
:101A00001CF001E3DB2A8FEC22F0DF2AF5D792EC01
:101A100021F0D6EC1CF0180EDBCFEFFF60EC20F0CD
:101A2000A0EC20F0F1EC1DF003EF15F040EC4CF0D1
:101A30000A01826BA0EF14F052EC1FF002E1D651C4
:101A4000151808E0EAEC1FF0FF0EEE1811E1FF0E8A
:101A5000ED180EE1FFEC1FF0140EDBCF86FA150E29
:101A6000DBCF87FA0A01020E886F350E08EF15F0FA
:101A700009017E51010B01E10CD2180EDB50010867
:101A800001E307D234EC20F001E003D2FEEC20F0B9
:101A9000D950120FCBEC1DF0C00B56EC21F0E842F0
:101AA000E842E66E97EC1EF0E66A5BEC17F0146E07
:101AB000060EE15C02E2E16AE552E16E1450E76E67
:101AC000400EE7CFDBFFDB50030A33E0010A31E0D1
:101AD000060A2FE0050A01E1DCD1010A2AE1A2ECA5
:101AE00023F00A01825106E08AEC1EF00A0175EC2F
:101AF00020F0F7D7D950010F3AEC21F0DF6A060E3B
:101B0000DF5C4AE2B2EC21F012E1FF0EED180FE1CA
:101B10009FEC23F090EC1EF037EC1DF0DFEC1FF093
:101B200037EC1DF0EE52010EDBCFEFFF35D0DF2A90
:101B3000E6D7DCEC22F0ACEC22F0EF6A9AEC20F075
:101B4000030EEF6E400EDB50020804E1F0EC1CF0D7
:101B5000010E0FD0400EDB50030804E1F0EC1CF046
:101B6000020E07D0400EDB50040805E1F0EC1CF03B
:101B7000040EEF6E03D0F0EC1CF0EF6AF0EC1CF0FA
:101B8000A3EC1FF0F0EC1CF09FEC1FF0A0EC20F099
:101B900020EC1FF094EC1DF040EC4CF005EF15F03C
:101BA000DF6A080EDF5C10E2DF50EA6A8A0FE96E36
:101BB0000A0EEA22EF50E66EDF50EA6A920FE96EF3
:101BC0000A0E4FEC22F0EDD797EC21F0DF6E1808EB
:101BD0000CE173EC15F000090FE0ACEC15F01808FF
:101BE0000BE012EC15F082CABDF9C9CC88FACACC58
:101BF00089FA0A01826B05D00A01010E826F886999
:101C00008969170E08EF15F00A01A9990A01825196
:101C10001DE00A01A9970A01D369D469DEEC57F0E7
:101C20000A01A99B44EC23F002E2E16AE55269EC67
:101C300021F0D0970C01180ED56F19EC1DF002E2BF
:101C4000E16AE552E16E145035EF13F088CAD5FA17
:101C500089CAD6FA0A01A987E6EC57F044EC23F0CA
:101C600002E2E16AE552E16E17500C01CF9DCF9F71
:101C700094EC23F0C60EE66E0A0E0FEC1FF002E2A3
:101C8000E16AE552E16E145019EC1DF002E2E16ADE
:101C9000E552E16E1450C9CCCEFACACCCFFA0A0193
:101CA000A98B0C01CE510F0B010F0C01D66FE66E04
:101CB000F1EC16F0E552F3CFD7FCF4CFD8FC0C01D1
:101CC000DFB11AD0AFEC1EF00C01D96F0A01D6516A
:101CD00007200C01DA6F010ED927000EDA23010E5E
:101CE0000A01D5250C01DB6F000E0A01D6210C017B
:101CF000DC6FDD6BDE6BDF8187EC1FF02BEC1DF002
:101D000002E2E16AE552E16E145009017E8192EC33
:101D10001FF0A1EF13F009017D9B7D8DCECAE6FF78
:101D2000CFCAE6FFC9EC1EF002E0CAEC1BF07AEC69
:101D30001DF0920EE66E0A0E9DEC20F002E2E16AC2
:101D4000E552E16E1750020E0901C85D16E10A0165
:101D500082510FE109017E51020B02E125EF14F0DF
:101D60000C01DD5106E109017E51040B02E025EF73
:101D700014F00A01CB0E55EF14F07E51200B02E057
:101D8000000E01D0010E0A01826F4D0E08EF15F012
:101D9000020E0A01885D01E07CD02AEC1FF0EF50B2
:101DA00001E077D086CAE6FF87CAE6FF20EC1FF085
:101DB0001DEC1BF070EC22F018081CE1ACEC15F0E7
:101DC000180867E00C01D083CF8DCF8FDF6A080E33
:101DD000DF5C07E2DF50EA6A17EC20F0EF6ADF2AE7
:101DE000F6D70C01D42B2BEC1DF002E2E16AE55290
:101DF000E16E14500A019BAD03D00C01CF9902D0C3
:101E00000C01CF89CF9BD081020E67EC1EF0780BBE
:101E1000E840E840E8401F0B0C010F0BF36EF00E9A
:101E200022EC22F00F0B0C01CEEC1EF022EC22F083
:101E3000F00BE8380F0B0C010F0BF36EF00ECF1503
:101E4000F310CF6F9DCACDFC0A019B510C01D095B8
:101E5000800B01E0D085020E67EC1EF0040B040835
:101E600002E0000E01D0010E0C01D097E8B0D0873F
:101E700086CACBFC87CACCFC8ACAC9FC8BCACAFCFE
:101E800089CAD1FC19EC1DF002E2E16AE552E16E6B
:101E9000145040EC4CF017EF14F097EC21F0DF6E8B
:101EA000180EDF5C02E107EF15F0C9CC92FACACC3C
:101EB00093FA0A01010E826F230E08EF15F0090153
:101EC0007D51080B1BE0020EC85D18E17E51400BEE
:101ED00001E0010EE76E410EE7CFDBFF0A01926BD6
:101EE000936B946B956B966B976B986B996B826BFE
:101EF00026EC20F0410EDB5037E139D07DA73CD0F5
:101F00007E51400B01E0010EE76E4A0EE7CFDBFF8A
:101F10007AEC1DF0D950420F81EC1DF02CEC23F02F
:101F200002E2E16AE552E16E1750420EDBCF92FA0F
:101F3000430EDBCF93FA440EDBCF94FA450EDBCF92
:101F400095FA460EDBCF96FA470EDBCF97FA480E8E
:101F5000DBCF98FA490EDBCF99FA0A01826B26ECA7
:101F600020F04A0EDB5003E00A01A98B02D00A01DF
:101F7000A99BA99756EF14F026EC20F03D0E08EF30
:101F800015F00A01880501E062D14F0EDB6A82512B
:101F900003E00A01A99959D1836B846B856B865143
:101FA000871101E118D119EC1FF069EC1FF01AE05C
:101FB000020EDBCFE9FF030EDBCFEAFF52EC1EF08F
:101FC000BDEC1DF0ABEC23F0ABEC1FF002E11750C1
:101FD000151808E02AEC1FF00E0EFCEC1CF028ECA3
:101FE0001EF0E3D769EC1FF001E0B5D0BDEC1DF0A9
:101FF000EF50010B10E0BDEC1DF0040EFCEC1CF0EA
:10200000E9CF14F0EACF15F0E9CFE6FFEACFE6FF1B
:10201000E4EC1AF007D0BDEC1DF0040EBFEC20F08C
:1020200001EC1BF0E552E552DF6E180EDF5C01E1BA
:1020300092D009017EAD0DD0BDEC1DF01A0EEB5013
:10204000DBEC1EF004E6900E145C000E155801E265
:10205000ABD0100EE66E26EC6CF0E5524B0EF3CFD3
:10206000DBFF4C0E71EC23F076E0BDEC1DF0020EB0
:10207000D4EC20F0ADEC1DF014C0EEFF15C0EDFF68
:10208000BDEC1DF0010EEB50E66EADEC1DF0020E46
:10209000A9EC20F00C01CE51F00B56EC21F0C9EC6C
:1020A00021F00F0BF36EF00E97EC1FF0CF510F0BDA
:1020B000C9EC21F077EC23F0EF500F0BD1EC21F0BD
:1020C0000F0BF36EF00EAFEC21F006EC21F0EF50A9
:1020D000F00B56EC21F0D1EC21F077EC23F0EE522E
:1020E000EF50800B01E0010E146EADEC1DF0BBEC67
:1020F00023F01450010BF36EFE0EAFEC21F058EC00
:1021000023F0EECF14F0EECF15F0EECF16F0EECFB9
:1021100017F07EEC21F0ADEC1DF0060EFCEC1CF08F
:102120008DEC1EF018C0EEFF19C0EEFF1AC0EEFFD6
:102130001BC0EEFFADEC1DF00E0EFCEC1CF084CAD3
:10214000EEFF85CAEDFF4B0EDBCF84FA4C0EDBCFE2
:1021500085FA0A01832B09017EAD26D0BDEC1DF066
:10216000040ED4EC20F00A01CE51000114181CE139
:102170000A01CF510001151817E1BDEC1DF0ABECC1
:1021800023F0EECF16F0EFCF17F00A01D351000184
:1021900016180AE10A01D4510001171805E1010ED1
:1021A000F36E4F0EF3CFDBFFBDEC1DF01B0EFCEC0E
:1021B0001CF028EC1EF086CAE6FF87CAE6FF75EC25
:1021C00022F00A01866B876B020EDBCF86FA030EC4
:1021D000DBCF87FAE4D6835102E10A01A99909010C
:1021E0007EAD33D07E9DA2EC22F0060E7AEC22F07A
:1021F000CA0EEF6E4BEC22F002E2E16AE552E16EAC
:102200001750DF6A080EDF5C03E2A5EC22F0FAD774
:102210007FEC23F0100EEF6ED6EC1CF015EC1FF0E7
:102220002AEC20F094EC1DF009017E8F9EEC6EF0FC
:1022300006C0D1F907C0D2F908C0D3F909C0D4F952
:10224000C9CCCEFACACCCFFAE0D3360EE1D30A011C
:10225000A9990A01825107E1DEEC57F0D5CA88FA44
:10226000D6CA89FAF7D444EC23F002E2E16AE552D7
:10227000D9EC21F002E2E16AE552E0EC21F002E261
:10228000E16AE552E16E14500A01A99B0A018869CE
:102290008969CA0E55D228EC22F00A01825103E066
:1022A000180EDF5CC4D2180EDF5C01E1B0D3C9CCDC
:1022B0008AFACACC8BFABDC982FA836B4C0EA8D3BA
:1022C0000A01825101E088D109017E8185D10A018C
:1022D000825101E102D3EB0E825D02E1826BFDD2FD
:1022E000C60EFAD20A01A9B703D00A01C20ECAD09B
:1022F0000A01921D01E1931D0EE0FD0E921902E10B
:10230000FF0E931908E0FC0E921901E08BD0FF0E2E
:10231000931901E087D0D950510F63EC22F001E10D
:10232000AFD0EDEC22F006EC21F0EF88EDEC22F0DE
:1023300058EC23F0D20EEE268E0EEE22000EEE2288
:10234000EE220A01A751146E156A7F0ED88014562A
:10235000000E15560A01A651166E176A145016245F
:102360000A01826F510E22EC21F08B51400DF35087
:102370000809E66EEDEC22F00A0EA9EC20F083517C
:10238000E824E66EEDEC22F0090EA9EC20F0EDEC6D
:1023900022F0070E2FEC22F0EDEC22F0BBEC23F044
:1023A0002FEC1FF0EDEC22F0040EFCEC1CF08ACABE
:1023B000EFFFEDEC22F0AEEC23F09CCAEFFF82CAF7
:1023C000E6FFA2EC1DF0510E67EC22F007E1510E82
:1023D00032EC23F0510EFDEC1DF052D0DF6A0A0101
:1023E000A751DBEC1EF004E67F0E145C000E1558BE
:1023F00005E2A72BA75151EC23F0F1D70A01826B1C
:102400000A01A65108E00A018251822B51EC23F007
:102410000A01A607F5D709017D818CEC1FF00A019E
:10242000A66B05D2FEEC20F08BCAE6FF92CAE6FF4F
:1024300093CAE6FF010EE66E5BEC17F0146E060E13
:10244000E15C02E2E16AE552E16E1450E76E520E81
:10245000E7CFDBFFDB50010A01E1E9D1010A03E02C
:102460000A01D10E0FD0DF6A2E0EDF5C06E2D1EC3E
:1024700020F0EF5002E0DF2AF7D72E0EDF5C09E1F3
:102480000A01F10E826F8CEC1FF00A01A66B340E6C
:10249000BFD2D1EC20F09CCAEFFF0A01D6EC1CF0B1
:1024A0009CCAEFFFD7EC20F093CAEFFFD6EC1CF0EC
:1024B00092CAEFFF0A018351E824A7EC23F00A0136
:1024C0008B51400DF3500809A7EC23F0D950500F61
:1024D0003AEC21F082EC23F0500EDBCFEFFF95D2E7
:1024E00009017EBBA4D1180E0C01D55D14E0D551B5
:1024F00044EC20F002E2E16AE552D9EC21F002E27C
:10250000E16AE552E0EC21F002E2E16AE552E16EB7
:1025100014500A01A99BDF6A180EDF5C14E2DF5039
:1025200044EC20F002E2E16AE55269EC21F0D0A32C
:1025300008D0D09719EC1DF002E2E16AE552E16E95
:102540001450DF2AE9D70A01A9890901BB51BC113E
:1025500005E06FEC1FF00901BB6BBC6B8ACABEF9CA
:102560008BCABFF98CCAC0F98DCAC1F989CAC2F930
:102570000A01010E886F07D10A01C20E826F370E61
:1025800047D209017D950A01825103E10A01BD91FB
:1025900014D00A01BD81FF0E0A01825D0EE082CADD
:1025A00093F99EEC6EF006C08FF907C090F908C051
:1025B00091F909C092F909017D8583CAE6FF43ECD0
:1025C0001CF0E5520A01826B380E22D20A01A9B72B
:1025D00005D00A01C20E826F390E1AD288CADFFFF7
:1025E00044EC23F002E2E16AE552E16E1750090182
:1025F0007E91CBCC86FACCCC87FAD1CC88FA0A0172
:102600000F0E8E6F8F6F826BDF5001E082832D0E75
:10261000FFD109017EBB0BD10A01A951080B13E0C0
:10262000020E0A01825D0FE16FEC1EF009017E8D42
:102630000A01010E886F0D0E896F0A01AA0ED36F71
:102640001A0ED46F9ED00A01A9890A01825101E0B5
:102650007AD00C01DF912BEC1DF002E2E16AE55229
:10266000E16E14500A01C30E826F0C01180ED56F73
:102670005E0EDB68DF6A180EDF5C2EE2DF5044EC92
:1026800020F002E2E16AE5529EEC1EF023E0D05118
:10269000040B20E0D051080B1DE00A019A510C01F7
:1026A000CB1918E10A019B510C01CC1913E11E0E44
:1026B000CD5D10E35E0EDBCF14F0CE510F0BD88052
:1026C000145408E2CE510F0BE76E5E0EE7CFDBFF2E
:1026D000DFCFD5FCDF2ACFD7180E0C01D55D2AE05D
:1026E000D55144EC20F002E2E16AE552E16E175068
:1026F0009ACAD3FA9BCAD4FA16EC1EF0010EE66E03
:10270000E66AD40E146EDD0E16EC21F05CEC1FF0C0
:1027100002E2E16AE552E16E1750D1CC88FA0A0173
:10272000020E896FC9CC92FACACC93FADFCF82FA33
:10273000150E6ED10A01A9990A0188698969C30E2B
:10274000826F3A0E65D16FEC1EF00A01A951200B81
:1027500006E009017E51400B02E07E9D09D00A018E
:10276000A951200B05E00A01820502E1030E02D007
:102770000A01010E886F080E896F9ACAD3FA9BCAA4
:10278000D4FA16EC1EF0280E43D197EC21F018086D
:1027900003E00A01C50E09D0A6D9000904E0DCD97E
:1027A000DF6E180804E10A01C70E826F03D03AD920
:1027B0000A01826B3B0E2CD10A01A9B703D00A0192
:1027C000C20E73D00A01925134E1935132E1945117
:1027D00030E195512EE196512CE197512AE1985123
:1027E00028E1995126E10A01BD9109017D870A017D
:1027F000825109017E93E8B07E837E85C36B7EB3F0
:1028000002D0180EC36FFCEC1EF00A01835102E0E7
:10281000000E01D0010E09017E9BE8B07E8B0A01FB
:10282000835109017E9DE8B07E8D020EC86F000EB7
:10283000EFD028EC22F0180836E002EC21F033E16A
:102840000A01855105E0CAEC1BF00A01826B2ED00B
:10285000DF6A080EDF5C03E262EC23F0FAD77FEC5C
:1028600023F0080EEF6E8BEC23F0A729EDEC1DF0A2
:102870003BEC6EF0E552A2EC22F0040EEF6E400E3F
:10288000DF6E0A01825101E0DF8E835103E009010E
:102890007E8DDF8AA2EC22F0DFCFEFFFA0EC20F0EC
:1028A0002AEC20F0B0D00A01C80E826F3C0EB0D0E6
:1028B0000A01010E826F240EABD00A0182510BE196
:1028C000836B92EC1FF0020E896FCECA92FACFCAC8
:1028D00093FA310E9DD0C10E826F3E0E99D00A013F
:1028E000A9B702D00A0113D00A01845112E0921D47
:1028F00001E1931D0CE0FD0E921902E1FF0E931908
:1029000006E0FC0E921905E1FF0E931902E1C20EDA
:1029100016D0D950600F81EC1DF0D9505F0F81ECBB
:102920001DF092CAE6FF93CAE6FF7EEC1FF002E2BA
:10293000E16AE552A2EC1EF005E10A01020E826F87
:10294000730E66D009019451942BE66E5F0ED3ECA2
:102950001CF00E0EA9EC20F05F0EF3EC20F02FEC33
:102960001FF05F0E27EC23F02FEC1FF05F0E36EC0C
:1029700022F05F0EE5EC22F00309EF6E5F0E81ECB2
:1029800020F0EF965F0E1DEC23F0EF68A6EC1EF032
:102990000A0187EC22F0D7EC20F0EF68D6EC1CF0AF
:1029A000EF68D6EC1CF0EF6A9AEC20F0010E7AEC9E
:1029B00022F0800EEF6E0A01840505E10A01A605EA
:1029C000F8EC20F0EF8C5F0E22EC23F08FEC22F07D
:1029D0000A01845109E1A2EC22F0D5CAEFFFF0EC24
:1029E0001CF0D6CAEFFF08D0A2EC22F092CAEFFF8B
:1029F000F0EC1CF093CAEFFFF0EC1CF0EF6AA0ECD7
:102A000020F0E668E66894EC1DF0100E01D0000E90
:102A1000146E610EE15C02E2E16AE552E16E14506F
:102A20004AEF1DF094EC23F08A0EE66E0A0E0FECCE
:102A30001FF002E2E16AE552E16E1450D3CACBFC0A
:102A4000D4CACCFC0C01D1690A0182B314D00C01A8
:102A5000CF99CF8BD9CCC9FCDACCCAFC0C01D92BCD
:102A6000000EDA23FE0ED91921E1FF0EDA191EE15C
:102A700009017E871BD00C01CF89CF9BDBCCC9FC21
:102A8000DCCCCAFC0C01DE2BD751DB27D851DC2370
:102A9000AFEC1EF0146ED6510720156E0C01DB5101
:102AA000145CDC51155802E209017E890A01825149
:102AB0000C01D091080B01E0D081CF8DCF9FD08346
:102AC00019EC1DF002E2E16AE552E16E14500C01CE
:102AD000DD2BD42B2BEC1DF002E2E16AE552E16E16
:102AE000145087EF1FF00901FC511DE10A01BD518F
:102AF000010B17E0140E0C01DD5D13E20A01825197
:102B0000020B04E109017E51080B0CE0050E0C01DB
:102B1000D65D07E2060EDE5D04E209017E51100B70
:102B200001E0000C010C140E0C01DD5D13E20A0142
:102B30008251020B04E109017E51080B0CE0050EE5
:102B40000C01D65D07E2060EDE5D04E209017E514E
:102B5000100B01E0000C010CD4EC22F0180EDF5C2D
:102B60000FE2DAEC1CF002E2E16AE55269EC21F0D6
:102B7000D0B302D0DF5005D0E1EC1DF0DF2AEED754
:102B8000180EE5524AEF1DF098EC23F0DF6A070EAD
:102B9000DF5C05E254EC22F002E0DF2AF8D7070EF2
:102BA000DF5C08E02D0E7DEC22F042EC1DF0F8EC2D
:102BB0001DF002E1000E3ED0FC0EDBCFE9FFFD0E62
:102BC000DBCFEAFFDFCFEFFF8BEC22F00B0EFCEC4C
:102BD0001CF0EF6886EC1DF08BEC22F058EC23F033
:102BE00097EC1DF08BEC22F066EC21F08DEC1EF0E2
:102BF0008BEC22F006EC21F0EF9A8BEC22F006EC45
:102C000021F0F00EEF140209EF6E010EDB6A180ED0
:102C100052EC21F00EE28BEC22F0150EFCEC1CF0D5
:102C2000010EDB509CEC21F0030EEF6E010EDB2A4F
:102C3000EED7010EE552E5524AEF1DF0ACEC20F064
:102C4000FB0EDB50030811E0FB0EAFEC20F002E2BC
:102C5000E16AE552E16E17500C01E46B6BEC1DF07C
:102C600002E2E16AE552E16E1450A2EC22F0020E9B
:102C7000EF6E3DEC1EF09BEC1FF075EC20F03DEC90
:102C80001EF0020E83EC22F0F0EC1CF0FC0EDBCF09
:102C9000EFFFF0EC1CF0FD0EDBCFEFFF3DEC1EF084
:102CA000030E83EC22F03DEC1EF0030E40EC23F00B
:102CB00075EC20F03DEC1EF0050E83EC22F0DCEC10
:102CC00022F0FD0EDBCFEFFFD6EC1CF0FC0EDBCFCD
:102CD000EFFFB6EC21F020EC1FF094EC1DF0E55274
:102CE0004AEF1DF0ACEC20F02FEC1EF000EC1DF0D4
:102CF00002E2E16AE552E16E17500A0EDF5C0DE276
:102D0000CBEC1FF003E1FD0EDB50151806E036ECAE
:102D10001EF000EC1DF0EFE2ECD70A0EDF5C16E1CE
:102D20002FEC1EF000EC1DF002E2E16AE552E16ECC
:102D300017500A0EDF5C0AE2030E0C01E45D06E0A8
:102D400036EC1EF000EC1DF0F2E2EFD744EC1EF082
:102D5000DFCFEFFFDF6A030EDF5C05E2A6EC21F0B8
:102D600002E0DF2AF8D74BEC1EF0DFCFEFFF140EA6
:102D70007DEC22F050EC1DF0F8EC1DF002E1000EAD
:102D80002DD0FC0EDBCFE2FCFD0EDBCFE3FC0C0113
:102D9000010EE46F6BEC1DF002E2E16AE552E16EB8
:102DA0001450C3EC22F066EC21F0EF6886EC1DF0C5
:102DB000C3EC22F097EC1DF044EC1EF0EF50E66EF1
:102DC000C3EC22F0120EA9EC20F0C3EC22F058EC78
:102DD00023F0EE6AED6A09017D83010EE5524AEFA8
:102DE0001DF098EC23F0DE6ADD6AFD0EDB50050A6B
:102DF0001AE0010A15E0070A11E0010A0DE0030AD2
:102E000006E0010A12E13D0EDE6E140E03D05D0EE7
:102E1000DE6E030EDD6E09D08D0E03D0150E01D0CF
:102E2000010EDE6E01D0DE6ADD6ADECF14F0DDCF8A
:102E300015F014C0F3FF15C0F4FFE552E5524AEF58
:102E40001DF098EC23F02FEC1EF0010EDB6A00EC75
:102E50001DF002E2E16AE552E16E1750CBEC1FF083
:102E600007E1FD0EDB50151803E1010EDF6E07D000
:102E7000010EDB2A0C01050EE727000EE8230A0EDF
:102E800052EC21F002E2DF50E2E0DF500BE04BECCD
:102E90001EF0E5CCEEFFE6CCEDFF44EC1EF0E4CCFA
:102EA000EFFF04D044EC1EF0030EEF6EDF50E5524E
:102EB000E5524AEF1DF0ACEC20F0FB0EDBCFE6FF55
:102EC000FC0EE7EC1DF010E002EC21F004E054EC05
:102ED0001DF0000909E144EC1EF0FB0EDBCFEEFF14
:102EE000FC0EDBCFEDFF26D0800EE66E39EC22F033
:102EF000D5CAE6FFD6CAE6FFE66AE66A3AD8146E95
:102F0000070EE15C02E2E16AE552A2EC1EF023E06A
:102F1000FA0EDB50020816E0A0EC20F0BCEC1EF02C
:102F200075EC1FF002E2E16AE552A2EC1EF007E048
:102F3000DF5002E1000E1AD0FA0EDB6A0CD0FA0E56
:102F4000DB0409E1010EE66EFD0EDBCFE6FF78D86B
:102F5000E552E5520BD0BCEC1EF062EC1EF005E130
:102F60000A01D10E826F020E01D0000EE5524AEF27
:102F70001DF098EC23F0E652020EDB6ADF6A030EC6
:102F8000DF5C24E2A6EC21F01AE0FD0EDB501CE031
:102F9000C3EC22F08CEC21F0FC0EDB50145C14E14D
:102FA000C3EC22F0080EFCEC1CF01CEC20F0FA0E36
:102FB000DB50151809E1FB0EDB50161805E1010E78
:102FC000F36E020EF3CFDBFFDF2AD9D7F70EDBAEAD
:102FD00003D0DE520A0E02D0DE52040EDD6E020E67
:102FE000DB5027E0020EDB6A2FEC1EF0010EDB50F7
:102FF000DF5C1FE200EC1DF002E2E16AE552E16EE7
:103000001750E2CC14F0E3CC15F0F80EDB50141896
:1030100003E1F90EDB50151804E0030E0C01E45D2A
:1030200005E1010EF36E020EF3CFDBFF36EC1EF06E
:10303000DDD7020EDB50E552E552E5524AEF1DF0B6
:1030400013EC1DF00B0EE12402E3E168E652E16EA1
:10305000010EDB6A060E52EC21F008E29BEC23F035
:10306000D3EC1DF003E0010EDB2AF4D7010EDB5098
:10307000060801E151D10B0E7DEC22F09BEC23F010
:1030800089EC20F0F8EC1DF001E146D1FD0EDB509B
:1030900001E18CD06AEC20F0AEEC23F02FEC1FF0B5
:1030A0006AEC20F0050E2FEC22F00A01A751166EF3
:1030B000176A7F0ED8801656000E1756080E162671
:1030C000000E17220A01A65100011624146E000EEC
:1030D0001720156ED9EC22F014C0EFFFD9EC22F0C6
:1030E00057EC1EF001E10FD16AEC20F05FEC1FF00D
:1030F000F350080980EC22F001E3DB2A46EC1DF0D6
:103100000A018351E82480EC22F001E3DB2A90ECF1
:1031100023F001E3DB2A92CAEFFFF4EC1CF001E399
:10312000DB2A93CAEFFFF4EC1CF001E3DB2AD5CADB
:10313000EFFFF4EC1CF001E3DB2AD6CAEFFF040E2C
:103140008ACADBFFF4EC1CF001E3DB2A040EDBCFC0
:10315000EFFFF4EC1CF001E3DB2A9CCAEFFF0A014D
:10316000A751DBEC1EF004E67F0E145C000E155830
:103170000BE2A72BA751EDEC1DF0F4EC1CF001E3E2
:10318000DB2A46EC1DF0EBD7DF6A0A01A651A60741
:10319000000901E176D0DF50DF2AEDEC1DF0F4EC00
:1031A0001CF001E3DB2A46EC1DF0EFD7040E0A0108
:1031B000845F000E855B6AEC20F0AEEC23F021EC1E
:1031C00020F08407FAEC22F0FCEC1CF0EE5246EC06
:1031D0001DF08407000EFAEC22F0A9EC20F0020E9C
:1031E000845F000E855B080E8227D9EC22F082CA2C
:1031F000EFFFD9EC22F057EC1EF001E184D06AEC2D
:1032000020F05FEC1FF0F3CF14F0F3CFE6FFD0D93E
:10321000E552E7CF14F03F0B141080EC22F001E3ED
:10322000DB2AC5EC20F001E3DB2AC5EC20F001E34A
:10323000DB2AC5EC20F001E3DB2AC5EC20F001E33A
:10324000DB2AC5EC20F001E3DB2A46EC1DF0B0D907
:10325000FF0FE76E040EE7CFDBFFC6DB01E3DB2ADF
:10326000040EDBCFEFFFE1EC22F001E3DB2A46ECBA
:103270001DF00A01825105E0E1EC22F0F8E3DB2ABF
:10328000F6D786EC1DF06AEC20F05BEC23F097ECAF
:103290001DF0D950060F81EC1DF0D950050F81ECBF
:1032A0001DF06AEC20F0050EBFEC20F07EEC1FF064
:1032B00002E2E16AE552A2EC1EF022E08CEC1FF083
:1032C0000A01A66B0E0E7DEC22F0050E94EC20F0A8
:1032D00059EC22F040EC22F0145015101FE10C01C3
:1032E000010EE46F6BEC1DF002E2E16AE552E16E63
:1032F0001450050E97EC20F0A8DB050EE0EC1EF054
:103300006AEC20F0A2DB9BEC23F089EC20F09DDB43
:103310009BEC23F0D7EC1DF0040E8ED0050E22ECB2
:1033200023F094C9EFFF050EF3EC20F02FEC1FF013
:10333000050E36EC22F0050EE5EC22F00409EF6EE6
:10334000050E81EC20F0EF964FDB01E3DB2A010E46
:10335000EF6E4ADB01E3DB2A800EEF6E0901945128
:10336000942B80EC22F001E3DB2A90DB6AEC20F066
:10337000BBEC23F0EF5080EC22F001E3DB2A86DB8C
:103380006AEC20F0050E40EC23F02EDB01E3DB2A93
:1033900090EC23F001E3DB2AEF6AA6EC1EF024DBBD
:1033A00001E3DB2A90EC23F001E3DB2A040EDBCF00
:1033B000EFFF1ADB01E3DB2AD6CAEFFF15DB01E3DF
:1033C000DB2AD5CAEFFF10DB01E3DB2AEF680CDB59
:1033D00001E3DB2AFC0EEF6E07DB01E3DB2AEF6A79
:1033E00003DB01E3DB2A090EEF6E9EEC6EF0070EA5
:1033F00006C0DBFF080E07C0DBFF090E08C0DBFFBD
:103400000A0E09C0DBFF070EDBCF14F0080EDBCF7E
:1034100015F0090EDBCF16F00A0EDBCF17F0040E05
:10342000145E5D0E155A000E165A175A050EEEEC74
:1034300020F08DEC1EF0010E146E0B0EE15C02E22A
:10344000E16AE552E16E145025D3EDDAF90EDB5056
:103450003DE006EC20F0FA0EDBCF16F0FB0EDBCFE2
:1034600017F01650145C1750155832E2FA0EDBCFE5
:1034700018F0FB0EDBCF19F0FC0EDBCF1CF0FD0EBD
:10348000DBCF1DF018C0E6FF19C0E6FF1CC0E6FF49
:103490001DC0E6FFF90EDB04E66EA3DCE552E55243
:1034A000E7CF1DF0E552E7CF1CF0E552E7CF19F06A
:1034B000E552E7CF18F01C50F3241A6E1D50F4208B
:1034C0001B6E1A50185C1B50195802E2010E01D0F5
:1034D000000EE0D2ACEC20F0DF6A180EDF5C1DE2DB
:1034E000DF5044EC20F002E2E16AE552E16E175051
:1034F0000A018A510C01C9190EE10A018B510C0114
:10350000CA1909E1FD0E4CDA150E76DADF509CEC93
:1035100021F0EF9002D0DF2AE0D7E552BBD20901BB
:10352000742B745101E1742B74511200ACEC20F037
:103530000A01A99B0C012FEC20F0DF6A3CDB180E7E
:10354000DF5C09E276DA02E2E16AE552E16E1450EC
:10355000F2EC21F0F4D70C01D46B180ED56FDD6BB3
:10356000DE6BDF913C0ED26FA50ED36F74DA02E2F0
:10357000E16AE552E16E1450E5528CD2ACEC20F0D9
:103580000C01030EE46FE269E3690C01D80EE76FEA
:10359000D10EE86FDF6A0A0EDF5C08E29CDA02E215
:1035A000E16AE552E16E145061DBF5D7E55272D263
:1035B0000A01825101E1000C82072AEC1FF0842BE2
:1035C000000E8523EF501200D4EC22F0180EDF5CC1
:1035D00015E2F0D902E2E16AE55269EC21F0D0A3EC
:1035E0000AD028EC21F0F0DB02E2E16AE552AADB26
:1035F00002E1DF5004D0F2EC21F0E8D7180EE552DA
:1036000049D2D4EC22F0180EDF5C14E2D3D902E2E6
:10361000E16AE55269EC21F0D0A309D0D3EC1FF0A8
:1036200006E1FD0EDB50151802E1DF5004D0F2EC8C
:1036300021F0E9D7180EE5522DD2D4EC22F0180E65
:10364000DF5C20E2B7D902E2E16AE55269EC21F0E1
:10365000D0A315D0D3EC1FF012E1FD0EDB501518EE
:103660000EE1CBCC16F0CCCC17F0FA0EDB501618CE
:1036700006E1FB0EDB50171802E1DF5004D0F2EC3C
:1036800021F0DDD7180EE55205D2CDD9080EE12480
:1036900002E3E168E652E16E2DDA5CEC1FF002E233
:1036A000E16AE552E16E175094EC23F0A0EC20F0B3
:1036B0008BDB02E2E16AE55245DB02E1010E01D05B
:1036C000000E146E080EE15C02E2E16AE552E16E62
:1036D0001450E0D1ACEC20F0DF6A6DDA180EDF5C3C
:1036E00019E268D902E2E16AE55228DB10E0DCD990
:1036F00001080DE0D9D900090AE02FEC20F00C01F7
:10370000D40797D902E2E16AE552E16E1450F2EC77
:1037100021F0E4D7A0D902E2E16AE552E16E14504B
:10372000E552B8D180D90A01A9810A01020E886F39
:10373000D3CA86FAD4CA87FAD5CA8AFAD6CA8BFA05
:10374000896FF0DBFC0EDBCF92FAFD0EDBCF93FA34
:10375000A2DAD0CAEFFFD0CA9CFA856BD950FC0F11
:10376000E96EFF0EDA20EA6EFF0EEE1802E1FF0EA0
:10377000ED180CE08581FC0EDBCFE6FFFD0E27DAAD
:1037800005E00C01D0B102D00A0185850A01010EC5
:10379000846F80D102EC21F00BE10C01DD070C01FC
:1037A000F4EC1FF0010802E10C01DE07B0DB06D0EB
:1037B0007BD9000903E10C01180ED56F0C012FEC29
:1037C00020F037D902E2E16AE552E16E14500C01B3
:1037D000D40741D902E2E16AE552E16E14501200C9
:1037E00098EC23F0DF6AE7D9010EDB6A180E52EC81
:1037F00021F02FE2DFD802E2E16AE5529FDA25E00C
:1038000053D9010822E106EC20F0C951141802E155
:10381000CA51151812E00C01D629E66E45EC21F0CC
:103820002AEC20F012DE166E050EE15C02E2E16A7F
:10383000E552E16E1650000908E02DDAC9CCEEFF22
:10384000CACCEDFF010EDF6E04D0BBD9010EDB2A1E
:10385000CDD7DF5014E1D6CCE6FF45EC21F0BEDB3E
:10386000146E050EE15C02E2E16AE5526BDA07E1F3
:1038700012DACECAEEFFCFCAEDFF010EDF6EDF50C7
:10388000E552E55207D1CFD8FD0EDB5026E00A0104
:10389000BE6B210EBF6F0C01D651080DF3CFC0FADD
:1038A000140EDD5D1AE2180ED45D17E209017E5197
:1038B000080B06E1050E0C01D65D02E20A01C08F7D
:1038C000050E0C01D65D09E2060EDE5D06E2090179
:1038D0007E51100B02E10A01C085DCD0ACEC20F077
:1038E000D6CF74F90A01A96B09017E51200B01E0C2
:1038F000010EDF6E7D6B7E6B7F6B806BDF507E9B7E
:10390000E8B07E8BDF6A2E0EDF5C05E2D1EC20F0A2
:10391000EF6ADF2AF8D7FD0EDB5005E10901BB5144
:10392000BC1101E0DCDA0901BB6BBC6BDF6A070E7E
:10393000DF5C10E2FD0EDB5008E154EC22F005E004
:103940008BEC22F082D89ED880D89CD8EE6AED6AA3
:10395000DF2AEDD7DF6A060EDF5C0EE2FD0EDB50DC
:1039600006E147EC22F003E0F5EC22F06ED8EA6ABB
:10397000DF341DD9DF2AEFD7DF6A030EDF5C0DE2EB
:10398000FD0EDB5005E1A6EC21F002E089D85DD800
:1039900087D8EE6AED6ADF2AF0D7F0DDE5527AD0FB
:1039A0009CDB78EF20F0C3DB78EF20F0A751A7076E
:1039B000F8EF20F0110EE66EE66AE0CC14F0E1CCF0
:1039C00015F0166AE0CCE6FFE1CCE6FF16C0E6FF94
:1039D000C10EE66E0C0E9DEF20F09BDB78EF20F021
:1039E000A651A62BF8EF20F0020EDBCFE9FFDB2A71
:1039F000030EDBCFEAFF1200E926000EEA221200D6
:103A0000050EE66EE66AE7CC14F0E8CC15F0166A0F
:103A1000E7CCE6FFE8CCE6FF16C0E6FFE20EE66E76
:103A20000C0E9DEF20F08CDBE1CFD9FFE2CFDAFF67
:103A30001200110EE66EC10EE66E0C0EE66EE0CCC4
:103A4000E6FFE1CCE6FF4CEF21F0EECFE6FFEFCF53
:103A5000E6FF75EF22F00E0EE66ED20EE66E0C0E4D
:103A6000E66E320EE66ED00EE66E4CEF21F0DF50C1
:103A7000040DF3CFE9FFF4CFEAFFA10EE926090E0A
:103A8000EA221200EA6ADF3401EF23F0E552E75040
:103A9000EF6E1200E552E5CFDAFFE7CFD9FF120053
:103AA000EA6ADF3409EF23F0CF51C00BE842E84265
:103AB00056EF21F07EEC21F048DB00011850EE5C5F
:103AC000146E1950EE58156E1A50EE58166E1B50A3
:103AD000EE58176E12001BEC22F0E7CCE6FFE8CCA4
:103AE000E6FFDAD3FE0BEA36E96E180EE926090E78
:103AF000EA22120094EC23F0580E146ECF0E16EF4B
:103B000021F0E66E000EDA20E66E12009EEC6EF0FA
:103B100006C014F014EF22F0270EDBCFE9FFDB2AFA
:103B2000280EDBCFEAFF1200FDDD70EF22F006C0A9
:103B3000EEFFE7EF21F0160EDBCFE6FF170EDBCF2F
:103B4000E6FF120026EC6CF0E5525BEF21F0146EFC
:103B5000000EDA20156E40EF22F04B0EDBCFE9FFAE
:103B60004C0EDBCFEAFF1200DBCFF4FFF350F45C26
:103B70001200DDDAEE50ED10120086CAE9FF87CAA6
:103B8000EAFF12001450EE24E76E1550EE20EA6EA4
:103B9000E7CFE9FF120048EC23F0EF501200E7CF27
:103BA000DBFFEEEF21F0B5DAEE50ED101200B1DAE6
:103BB000EE6AED6A12000C01400EE06FD00EE16F6C
:103BC00012000C01110EE027000EE1231200DBCFE2
:103BD000E6FF5EEC22F0180812000ADBEF50E66EFA
:103BE0001200040EDBCFE6FF050EDBCFE6FF12006E
:103BF00059EC22F01450151012006FDAEE6AED6ADB
:103C00001200E9CF14F0EACF15F00C0EDB509CEF58
:103C100021F0E66ED9DCE552E55212000A01826B12
:103C200017DB920EE66E0A0E41EF21F09CCA75F981
:103C30009DCA76F99ECA77F99FCA78F9A0CA79F920
:103C4000A1CA7AF9A2CA7BF9A3CA7CF9DEEF57F0C0
:103C5000020EEECFDBFF030EEDCFDBFF1200DF6ABB
:103C60000C01D80EE76FD10EE86F1200DF2A0C01AD
:103C7000050EE727000EE8231200F90EDBCFE9FF5F
:103C8000FA0EDBCFEAFF1200F80EDBCFE9FFF90EE8
:103C9000DBCFEAFF1200FA0EDBCFE9FFFB0EDBCF32
:103CA000EAFF1200EECF14F0EFCF15F01200EF5044
:103CB000E66E26EC6CF0E552020EF3CFDBFF030E4E
:103CC00071EF23F08DDD70EC22F0000912000A0183
:103CD000EA6A8425E96E8551EA22EF5012009CCAF7
:103CE000C9F99DCACAF99ECACBF99FCACCF9A0CA24
:103CF000CDF9A1CACEF9A2CACFF9A3CAD0F9120050
:103D0000F50EE66E0A0E9DEF20F07ADB0A01D55122
:103D1000141812004DDCE66E120014C0EEFF57D3EB
:103D2000160EDBCFEEFF170EDBCFEDFF1200140EE9
:103D3000DBCFE6FF150EDBCFE6FF1200CADAD0516B
:103D4000020B1200E16E1450000912008FEC1AF001
:103D5000E66E12000B0EC1D9EE50ED101200060EE9
:103D6000086E096AD7CC0DF0D8CC0EF0DBEC6AF007
:103D70000A01D55106241200F80EDBCFE6FFF90E3A
:103D8000DBCFE6FF39EF22F0A6DB1F0EDB50141865
:103D9000120094DBDF6E180EDF5C12000F0BF36E67
:103DA000F346F346F346F3460F0E1200070ED88093
:103DB000DF54EA6A1200146E156AD890155012008A
:103DC000B6D9EE6AED6A120060DA7CEC6DF04DEF68
:103DD00023F0080E146E1A0EDBCFE7FF1450E7260F
:103DE0001A0EE7CFDBFF1200DF500A0D64DA0C0E6B
:103DF0001426D20E152212009EEC6EF006C0C4F9F5
:103E000007C0C5F908C0C6F909C0C7F91200EF50CC
:103E1000050D51DAD80E1426D10E15221200E66EC9
:103E2000C10EE66E0C0E41EF21F0090EEF6EA0EF11
:103E300020F0020E84CADBFF030E85CADBFF1200EE
:103E40008ACAE6FF8BCAE6FF1200DF50DF2A146E33
:103E5000156A120084CAE9FF85CAEAFF1200D5CAB2
:103E6000EEFFD6CAEDFF1200DBCFE6FF010EE66ED5
:103E7000B9EC17F0146E070EE15C120014C0E6FFF7
:103E800015C0E6FFCBEC65F0166E050EE15C120086
:103E9000EA0EE66E090EE66E45EC1BF0E552E552C1
:103EA00000091200140EDBCF14F0150EDBCF15F055
:103EB0000A01D5511418120043D92CEF23F0020E39
:103EC000DBCFEEFF030EDBCFEDFFFC0EDB50400D32
:103ED0001200D950020FDCDBEE50ED101200BBC90E
:103EE000E6FFBCC9E6FF75EF22F021EC17F0D5D351
:103EF0001EEC16F0146E050EE15C120072EC16F06A
:103F0000CCD3C4EC15F0E552E55200091200010EC5
:103F1000E66EB9DCE55212000A01A9910A017F0E92
:103F2000A76F1200D3CA9AFAD4CA9BFA1200EF14F0
:103F3000F310EF6E1200EE52EF50E66E1200170E05
:103F4000DBCFEFFF1200160EDBCFEFFF1200EF6AA0
:103F5000A729F8EF20F0EECF16F0EFCF17F0000111
:103F6000165014181200DF50146E156A060E145CF9
:103F7000000E15581200166A14C0E6FF15C0E6FFC1
:103F800016C0E6FF1200DF50146E156A080E145CAE
:103F9000000E15581200E2CC14F0E3CC15F0FC0E24
:103FA000DB5014181200C9CC14F0CACC15F0FC0E6A
:103FB000DB5014181200130EDBCFEFFF1200190EA6
:103FC000DBCFEFFF1200040EDB68050EDB680A0E84
:103FD000DB841200D950140F48EF23F0D5CAE6FF56
:103FE000D6CAE6FF25EF1AF0CF51300B56EF21F07D
:103FF000140EDBCFEEFF150EDBCFEDFF1200160E19
:10400000DBCF8AFA170EDBCF8BFA1200FC0EDBCF68
:1040100014F0FD0EDBCF15F012000A01D55100019E
:10402000141812000A01D651000115181200C10F10
:10403000E96E0C0EEA221200EECF15F0EFCF16F06B
:1040400012008ACAEEFF8BCAEDFF1200E66A46DC58
:10405000E5521200C9CCE6FFCACCE6FF1200CD6BD8
:10406000CE6BCF6BD06B12000A01A951010B12006D
:10407000180EDB04E66E1200150EDBCFEFFF120008
:10408000140EDBCFEFFF1200110DF3CFE0FCF4CFE5
:10409000E1FC400E0C01E027D00EE123DAEF1CF02A
:1040A00055DE0A0134DA82DC010EEF6E5BDAD6EF00
:1040B0001CF00A012CDA7ADC0A0EEF6EB2EF22F065
:1040C00075DC4ADA09DB72DC76DF70DC120EDBCFDE
:1040D000EFFF120030DBEDEF1CF0EA6ADB3491D227
:1040E0008BDCEF50E66E87EF22F07ADC46EF1DF0B6
:1040F000EE50EFCFEAFFE96E1200EF5028DBDF2A27
:10410000120051DC130EFCEF1CF0EA6ADF34EDEF15
:104110001CF0FE0BEA36E96E950EE926090EEA223E
:1041200012000B0ED0EF1CF03EDC58EF23F0EA6AD1
:10413000DB346FD2F0DAA2EF22F0E66E2CEF23F040
:10414000D9CFE6FFDACFE6FF1200D950060F48EFCD
:1041500023F052DC46EF1DF066DCE652120023DC51
:10416000120E4ADCEF50050DF3CFE7FCF4CFE8FC6C
:10417000D80E0C01E727D10EE82300EF1DF03CDC40
:10418000EECFE6FFEFCFE6FF120080DCE1EF22F09A
:10419000250E5DDA56DF250E4BDA210EDBCFEFFF61
:1041A0001200B0DAEE52120027DC52EF1EF0D6EC0D
:1041B0001CF08ACAEFFFD6D9D6EF1CF061DA87EF80
:1041C00022F0CACCEFFFD6EC1CF0C9CCEFFFD6EF43
:1041D0001CF0D0EC1CF0D6DC46EF1DF0D3EC1CF04C
:1041E000040EFCEF1CF0D3EC1CF0080EFCEF1CF0EE
:1041F000EA6A000FE96E0A0EEA221200D950040F93
:1042000081EF1DF00C0150DC01081200140EFCEFD0
:104210001CF0210EDBCFE7FF220EDB50E75E210E04
:10422000E7CFDBFFD9501C0F81EF1DF0156E166A2A
:1042300014C0E6FFE66E16C0E6FF120080DAEE68F4
:10424000ED681200D0EC1CF086DA82CAEFFF120093
:104250006BDAC10EE66E0C0EE66E1200EA6ADB3413
:1042600072EF1DF0D0EC1CF079DAA9DE82CAE6FF0D
:10427000A2EF1DF046DCB5DC94EF1DF047DAE7EF66
:104280001DF0E66EC4EC6DF008D2FC0EDBCFE6FF4D
:10429000FD0EDBCFE6FF1200CBEC65F0146E050ED1
:1042A000E15C1200F36E010EB4EF1DF0E842E8424B
:1042B000E842E8421200F3CF14F0F4CF15F01200F8
:1042C000D0EC1CF058DA2CDD38EF20F0100EFCEFAB
:1042D0001CF0E16E17500C011200D0EC1CF00A0E1D
:1042E000FCEC1CF0120EDBCFEFFF1200370ED3EC0C
:1042F0001CF0120EFCEC1CF007EF1FF0EECF18F0D4
:10430000EECF19F0EECF1AF0EFCF1BF01200150E22
:10431000FCEC1CF001EF1EF00E0EFCEC1CF0EFCFDD
:1043200014F012000A01D6EC1CF0DFEF1FF08A0E29
:10433000E66E0A0E09EF1EF0E924E96E000EEA208F
:10434000EA6E1200D9500A0FCBEF1DF050EC1DF0B1
:10435000EE50ED101200DBCFE6FF9BEF1DF0E7DD26
:10436000BDEF1DF0ECD9FF0EEE181200D6EC1CF0DC
:10437000EF6AD6EC1CF015EF1FF0D0EC1CF0090E24
:10438000FCEC1CF0DBEF1FF0D0EC1CF094D9F8EF44
:104390001FF0146EADEC1DF0EE52EE52EE521450C2
:1043A0001200146EADEC1DF0040EFCEC1CF0145069
:1043B0001200E16E17500C01CF8DCF8F19EF1DF059
:1043C000E16E14500C01180ED56F2BEF1DF015C0C7
:1043D000EEFF16C0EEFF17C0EEFF1200D8EC1AF089
:1043E000E76E1200DF2AE1EF1DF065D9EFCF9CFAEE
:1043F0000A01120025EC1DF0EA6ADF34D7EF1DF048
:10440000160EDBCF14F0170EDBCF15F01200D950CB
:10441000120FCBEC1DF0030B01081200D9501C0F3A
:10442000A7EC1DF0F4EF1CF007C015F008C016F063
:1044300009C017F01200050EE66EE20EE66E0C0ED5
:10444000E66E1200CE15F310CE6F010E67EF1EF070
:10445000920EE66E0A0E09EC1EF0DF6E1200FCEC06
:104460001CF092CAEEFF93CAEDFF1200E1D8EF6A8A
:104470001200FB0EDBCFE6FFFC0EDBCFE6FF1200E7
:10448000020E14C0DBFF030E15C0DBFF1200EA6A48
:10449000DF34D3EF1DF07AEC1DF080EF1EF0EA223E
:1044A00046EC1DF0DF2A120042EC1DF0EE50ED103C
:1044B0001200F3CFEEFF15C0EDFF120001EC1BF070
:1044C000E552E552120081EC1DF081EF1FF0D0ECB7
:1044D0001CF0F8EF1DF0D5CA14F0D6CA15F0120082
:1044E000E552E552E552E552120098EC6CF0E552C7
:1044F000E5521200EF6EF0EF1CF0E66EA2EF1DF039
:10450000E66EF4EF1CF0FCEC1CF0B7EF23F0D6ECF9
:104510001CF046EF1DF042EC1DF078EF20F0EF505C
:10452000E66E0A0175EF20F0DBCFE6FF220EDB50CE
:10453000E552E75CE66E250ED3EC1CF0110E09DEA9
:10454000C4EF1EF00A01F0EF1CF030DCF50FE96E4D
:104550000A0EEA227DEF20F0F2DCD6EC1CF0F3DC50
:10456000D6EF1CF0D6EC1CF0D6CAEFFFD6EC1CF050
:10457000D5CAEFFF1200FBD8F4EF1CF0C6DD030E26
:1045800013DE0DEF20F050EC1DF078EF20F0A8DDE9
:10459000D6EC1CF0EF6ACEDD030EACDFEF6A120042
:1045A000C0DD34DEEF501200D7DDDBEC1DF0DF6A3A
:1045B000120090DDABEF23F0A6EC1EF07ADDD6EF13
:1045C0001CF08AEC1EF0F4EF1CF09BDDF80EEF14EB
:1045D000120037EC1DF0020E1200510ED0EF1CF04D
:1045E00086EC1DF0BED897EF1DF0BED8EA6ADF3426
:1045F00089EF20F0855B2EDCEF50E66E6BDD050E5B
:104600001200FE0BEA36E96E810EE926090EEA2257
:104610001200FE0BEA36E96EE40EE926090EEA22E4
:1046200012007FDD0B0EFCEF1CF07BDDAEEF23F004
:10463000D3EC1CF00F0EFCEF1CF0D3EC1CF0110EB1
:10464000FCEF1CF0D3EC1CF00E0EFCEF1CF0D3ECD6
:104650001CF00A0EFCEF1CF0EFEC6DF0176E070E6D
:10466000E15C12003ADD25EF1DF03ADD91EF20F01C
:104670005BDDEE50ED1012000E0E43DDEF50120028
:10468000FCEC1CF09BEF1FF00C01D55144EF20F027
:10469000E96E000EDA20EA6E1200146E060EE15C7E
:1046A0001200EDEC1DF025EC1FF0510EE9EF20F0AB
:1046B0000C0EFCEF1CF0070EFCEF1CF026DD18DDE5
:1046C000F5EF21F0D6EC1EF0B2DC7DEF20F096DDA8
:1046D00097EC1EF062EF1EF0CFDCD6EC1CF040EF42
:1046E00020F0F4CFDBFFE7DDF350F4101200CEEC46
:1046F0001EF035DE06EF21F014DD87EF21F0D0DC6F
:10470000E1EF20F0EA6ADF3472EF1DF01F0EDBCF1D
:10471000E6FF200E1200D6EC1CF0090EEF6E120020
:1047200046EC1DF0F4EF1CF0080EE66EE66A12008F
:1047300013DDE6521200010EEA6ADB34120049DF93
:10474000FCEF1CF0EFDD94DCE2DE60EF20F0E66EC3
:104750000A0187EF22F0020EFCEF1CF0030EFCEFC3
:104760001CF0DFDC66EF21F0D0DC25EF1DF0EF5010
:0C477000E66E75EF20F0050EFCEF1CF06B
:04477C00040E0C011A
:104780007F1501E1000C010C0C017F6B806B786BD5
:10479000796B7A6B7B6B7C6B7D6B12006EEC34F00B
:1047A0003F0EE12402E3E168E652E16EDF6AFD0EAE
:1047B000DB5002E061EF28F09EEC6EF0020E06C0C6
:1047C000DBFF030E07C0DBFF040E08C0DBFF050E96
:1047D00009C0DBFF0A01A9B141D20C017FA1E9D2D6
:1047E0007A517B1101E152D128EC38F0200B0EE117
:1047F00087EC37F0C1EC34F009E341EC34F0F80E0B
:10480000EF140109EF6E41EC34F0EF8A28EC38F038
:10481000200B2FE028EC38F0070B01082AE187EC89
:1048200037F0200EEB50000905E1850EE66ED8EC5E
:1048300036F007D07FEC37F006E0850EE66E70ECC0
:1048400037F041EC36F05AEC35F05DEC35F002E033
:1048500007EC39F061EC35F05DEC35F002E00EEC80
:1048600039F084EC38F07F9141EC34F0EF9A5EEF50
:1048700028F0F3EC38F0010B01E108D1F3EC38F04B
:10488000040B01E003D1F6EC38F0080B01E0FED098
:10489000F3EC38F0200B01E0F9D0F6EC38F0100B17
:1048A00001E0F4D0A9EC37F0EF86ACEC37F0EF8400
:1048B00018EC36F0EB50146E190EEB50145C01E35B
:1048C000D1D061EC35F097EC34F018EC36F087EC91
:1048D00035F0060EEECFDBFF070EEDCFDBFF8CECE5
:1048E00037F02CEC37F001E3B4D0F5EC35F097EC71
:1048F00034F08CEC37F01A0E87EC35F0080EEECF62
:10490000DBFF090EEDCFDBFFF3EC38F0800B01E0AD
:10491000BDD0060EDBCF14F0070EDBCF15F0080E6E
:10492000DB50141801E08FD0090EDB50151801E0A0
:104930008AD0B2EC38F014E1080EDBCF14F0090E87
:10494000DBCF15F00C01B55114180AE1B65115185A
:1049500007E18CEC37F01A0E90EC35F01D0E2BD0E1
:1049600028EC38F0100B2AE0060EDBCF08F0070E1B
:10497000DBCF09F00A0E08C0DBFF0B0E09C0DBFF1E
:10498000B2EC38F006E0CAEC38F01BEC36F008E286
:1049900005D0CAEC38F0ABEC35F002E2E16AE55242
:1049A000E16E1450A9EC37F0EF8C87EC37F01D0E58
:1049B00093EC35F01A0E15EC39F045D0E7EC35F0F4
:1049C00012EC38F005E287EC37F0FDEC38F0F8D760
:1049D000A5EC34F02DEC39F0060EDBCFEFFF070E1F
:1049E000AFEC37F012EC38F003E25BEC39F0FAD7B9
:1049F000AAEC34F03EEC34F0E9EC36F087EC37F01A
:104A0000160E7ECCEBFF87EC37F01D0E90EC35F0E8
:104A1000060E64EC35F0B2EC38F006E0210E90ECB6
:104A200038F0145C0AE306D0220E90EC38F0FF0F49
:104A3000145C03E341EC34F0EF868CEC37F01A0E93
:104A400090EC35F008D18CEC37F01A0E15EC39F0FB
:104A500046D78CEC37F021EC36F018EC36F015EC3C
:104A600039F026D7A9EC37F0EF8AACEC37F0EF88B5
:104A7000A9EC37F0EF96ACEC37F0EF9418EC36F089
:104A800091EC37F0EF6AA9EC37F0EF907FEC37F05C
:104A900001E107D1F6EC38F0010B01E102D1F3ECB2
:104AA00038F0080B01E0FDD0F6EC38F0040B01E023
:104AB000F8D0F3EC38F0100B01E0F3D0F6EC38F05E
:104AC000200B01E0EED0A9EC37F0EF84ACEC37F02E
:104AD000EF8625EC36F0EB50146E190EEB50145C9B
:104AE00001E3CED0B1EC35F097EC34F025EC36F0A4
:104AF00087EC35F00E0EEECFDBFF0F0EEDCFDBFFB8
:104B000087EC37F02CEC37F001E3B1D05AEC35F0FC
:104B100097EC34F087EC37F01A0E87EC35F00C0E7A
:104B2000EECFDBFF0D0EEDCFDBFFF6EC38F0800BA8
:104B300001E094D033EC37F00E0EDB50141801E096
:104B400090D00F0EDB50151801E08BD0B6EC38F08A
:104B500010E133EC37F00C01B35114180AE1B451F1
:104B6000151807E187EC37F01A0E93EC35F01D0E9F
:104B70002BD080EC38F0100B2AE00E0EDBCF08F0C3
:104B80000F0EDBCF09F0100E08C0DBFF110E09C0BD
:104B9000DBFFB6EC38F006E0D3EC38F01BEC36F077
:104BA00008E205D0D3EC38F0ABEC35F002E2E16A74
:104BB000E552E16E1450ACEC37F0EF8C8CEC37F032
:104BC0001D0E90EC35F01A0E15EC39F04AD0E7ECDA
:104BD00035F012EC38F005E28CEC37F0FDEC38F0F3
:104BE000F8D7AAEC34F02DEC39F00E0EDBCFEFFF46
:104BF0000F0EAFEC37F012EC38F003E202EC39F0B4
:104C0000FAD7A5EC34F03EEC34F0E9EC36F08CEC5D
:104C100037F0160E7ECCEBFF8CEC37F01D0E93ECCC
:104C200035F0060E64EC35F0B6EC38F006E0210EF7
:104C300093EC38F0145C0AE306D0220E93EC38F0C3
:104C4000FF0F145C03E344EC34F0EF8687EC37F09D
:104C50001A0E93EC35F030EC39F088D1000E86EF67
:104C60002DF087EC37F01A0E15EC39F049D787ECA8
:104C700037F021EC36F025EC36F015EC39F029D779
:104C8000A9EC37F0EF88ACEC37F0EF8AA9EC37F0FD
:104C9000EF94ACEC37F0EF9625EC36F091EC37F072
:104CA000EF6AF3EC38F0100B01E183D0F3EC38F04D
:104CB000200B01E17ED0F6EC38F0100B01E179D049
:104CC000F6EC38F0200B75E0F6EC38F0400B71E0B4
:104CD000F3EC38F0400B6DE028EC38F0200B11E0DD
:104CE000F3EC38F0400B0DE048EC36F0E66ED8EC13
:104CF00036F041EC36F041EC34F0EF9A87EC37F0C7
:104D000014D080EC38F0200B15E0F6EC38F0400BB6
:104D100011E04CEC36F0E66E70EC37F041EC36F01A
:104D200044EC34F0EF9A8CEC37F0200ECBEC35F0FD
:104D3000EF6EC4D1ACEC37F0EF9CA9EC37F0EF9CF0
:104D40005AEC35F05DEC35F002E007EC39F061EC3F
:104D500035F05DEC35F002E00EEC39F084EC38F023
:104D6000F5EC35F05DEC35F009E0F5EC35F0FAECFA
:104D700037F0F5EC35F0EB6A130EEB6AB1EC35F079
:104D80005DEC35F009E0B1EC35F0FAEC37F0B1EC60
:104D900035F0EB6A150EEB6A70EC37F0B9EC34F0D5
:104DA0000C017C6B7D6B7851791102E08AEC38F054
:104DB0007F910C017FA5DDD07A517B115DE028EC5D
:104DC00038F0400B59E028EC38F0100B21E0140EBD
:104DD000B5CCDBFF150EB6CCDBFF88EC39F0140E3A
:104DE000DBCFE6FF150EDBCFE6FF8DEC39F0ABEC49
:104DF00035F002E2E16AE5526CEC36F003E0A9EC32
:104E000037F0EF82A9EC37F0EF8087EC37F06CD009
:104E1000E7EC35F012EC38F003E202EC39F0FAD7A7
:104E2000A5EC34F0A3EC37F0120EB5CCDBFF130E7B
:104E3000B6CCDBFF3EEC34F0120EDBCFEFFF3EECE6
:104E400034F0130EDBCFEFFF3EEC34F0DDEC36F048
:104E500012EC38F003E25BEC39F0FAD7AAEC34F04C
:104E6000A3EC37F087EC37F015EC38F041EC34F078
:104E7000EF9C87EC37F076D07C517D1101E178D042
:104E800080EC38F0400B74E080EC38F0100B31E02F
:104E9000160EB3CCDBFF170EB4CCDBFF87EC37F07C
:104EA000EB50E66E8CEC37F00FEC38F0160EDBCFE3
:104EB000E6FF170EDBCFE6FF8CEC37F0EB50E66E2B
:104EC00087EC37F00FEC38F0ABEC35F002E2E16A3A
:104ED000E5526CEC36F003E0ACEC37F0EF82ACEC72
:104EE00037F0EF808CEC37F092EC39F0EF9C86EFE6
:104EF0002DF0E7EC35F012EC38F005E28CEC37F0F1
:104F0000FDEC38F0F8D7AAEC34F0A3EC37F0B1ECB4
:104F100035F091EC37F0180EEECFDBFF190EEDCF28
:104F2000DBFF1A0EB3CCDBFF1B0EB4CCDBFF3EEC79
:104F300034F01A0EDBCFEFFF1B0EAFEC37F012ECA4
:104F400038F003E202EC39F0FAD7A5EC34F0A3EC28
:104F500037F08CEC37F015EC38F044EC34F0EF9C83
:104F60008CEC37F0210EE926000EEA22EF8E26D0D7
:104F70007F957FA385EF2DF069EC34F0100E91EC56
:104F800037F0C1EC34F002E3850E61D03BEC39F030
:104F9000010B09E1010EE66ED6EC33F0E552A6EC0A
:104FA00037F0EF800BD03BEC39F0020B0AE1E66AF8
:104FB000D6EC33F0E552A6EC37F0EF824F0E86EFD9
:104FC0002DF069EC34F0140E91EC37F0FF0EEE1872
:104FD00002E1FF0EED1802E185EF2DF069EC34F0EF
:104FE000160E91EC37F0FF0EEE1802E1FF0EED18F1
:104FF00002E185EF2DF03BEC39F0080B06E00A01E9
:105000008051811102E085EF2DF01C0EDB6A3BEC34
:1050100039F0040B0CE0BFEC37F01BEC36F002E289
:10502000E16AE5526CEC36F016E0870E10D0BFEC6A
:1050300037F0ABEC35F002E2E16AE552E16E145074
:10504000E76E1D0EE7CFDBFFDB5005E0880EF36E49
:105050001C0EF3CFDBFF3BEC39F0080B13E03BEC0D
:1050600039F0040B01E0010EE66E1C0EDBCFE6FF0B
:1050700013EC34F0E552E552000902E0510E1AD06B
:10508000DF6A19D074EC38F01C0EDBCFEFFF69EC4F
:1050900034F01E0EEB500C017E6F180E64EC35F0F0
:1050A0003BEC39F0040B02E0210E01D0220E78EC2B
:1050B00038F04F0EDF6E8AEC38F07F93DF5086EFCA
:1050C0002DF0FD0EDB505C0A02E176EF2DF0070AB1
:1050D00002E167EF2DF0060A02E196EF2CF0070AD5
:1050E00002E085EF2DF00A019D51800B01E1FDD01A
:1050F0009C5102E1800E9D1913E00C017F51010BC0
:1051000001E0C8D0210E0A019C1901E0C3D0800E35
:105110009D1901E0BFD00901FF5101E1BBD0C8D00A
:105120001E0EDB6A0A0E91EC34F0270EEFCFDBFF88
:105130000B0E91EC34F0280EEFCFDBFF020E91EC5A
:1051400034F01F0EEFCFDBFF030E91EC34F0200E96
:10515000EFCFDBFF040E91EC34F0210EEFCFDBFF3D
:10516000050E91EC34F0220EEFCFDBFF060E91EC32
:1051700034F0230EEFCFDBFF070E91EC34F0240E5A
:10518000EFCFDBFF080E91EC34F0250EEFCFDBFF05
:10519000090E91EC34F0260EEFCFDBFFD9501F0F34
:1051A00070EC36F026E1010EDB6A12EC38F025E2F5
:1051B00001EC35F002E2E16AE552E16E175024ECB1
:1051C00037F0D9501F0F08EC36F002E2E16AE552E1
:1051D0006CEC36F00BE10A0EE66ED9501F0F2FEC87
:1051E00035F002E2E16AE552E16E1650010EDB2A6B
:1051F000DCD7D9501F0F8EEC36F00C017F51020B1B
:1052000045E0010E0A0191EC34F0EF503FE124EC4F
:1052100037F069EC34F07AEC37F075EC37F0020EC9
:10522000CEEC35F002E2E16AE552E16E1850000979
:105230000DE10A0E0A0103EC38F0140E60EC34F0B4
:105240000B0E03EC38F0140E4CEC38F024EC37F075
:1052500069EC34F091EC37F058EC38F0020E0A01AA
:10526000CEEC35F002E2E16AE552E16E1850000939
:105270000DE10A0E0A0103EC38F0160E60EC34F072
:105280000B0E03EC38F0160E4CEC38F01E0EDB5013
:1052900029E049D30C017F51010B0CE1220E0A01D8
:1052A0009C1908E1800E9D1905E10901FF5102E0FA
:1052B000FF6B18D0220E0A019C1902E1800E9D1985
:1052C00014E0210E9C1902E1800E9D190EE0220EC1
:1052D0009C1901E19D5109E0210E9C1903E1800E0A
:1052E0009D1903E0510E86EF2DF0E3EC43F00C0125
:1052F0007E6F300E0A019C1901E19D5101E108D336
:10530000310E9C1901E19D5101E102D3320E9C192D
:1053100001E19D5101E1FCD2330E9C1901E19D5147
:1053200001E1F6D2350E9C1901E19D5101E1F0D267
:10533000340E9C1901E19D5101E1EAD2220E9C1923
:1053400001E19D5101E1B2D2220E9C1902E1800ED1
:105350009D1901E13FD2210E9C1902E1800E9D1999
:1053600001E117D2210E9C1901E19D5101E1E0D12B
:10537000200E9C1901E19D5101E1D3D1130E9C191E
:1053800001E19D5101E17CD1100E9C1901E19D517B
:1053900001E164D1110E9C1901E19D5101E15ED141
:1053A000140E9C1901E19D5101E158D1060E9C1982
:1053B00001E19D5101E148D1050E9C1901E19D518A
:1053C00001E13BD1040E9C1901E19D5101E180D026
:1053D000030E9C1901E19D5163E0020E9C1901E14D
:1053E0009D5146E0010E9C1901E19D5138E09C5110
:1053F00001E099D29D5101E096D2010EDB6A12ECD8
:1054000038F024E2010EE66EE66ADB50156A580FAA
:10541000146ECF0EFDEC37F0D950290F3EEC38F06A
:10542000DCEC37F002E2E16AE552E16E175054EC31
:1054300038F02A0EE7CFDBFFDB50F36E290EDB508E
:10544000F35C01E070D2010EDB2AD9D7E66A800E48
:10545000E66E66DBE552E5520A018C850ED1E5EC7D
:1054600036F001E160D2010E20EC37F059DBE2D0DA
:10547000E5EC36F001E157D220EC39F00A0EE66E89
:10548000E66AD20E146EDD0E7AEC34F002E2E16AC6
:10549000E552E16E19500A0E0A01A627020EC6D087
:1054A000E5EC36F001E13FD220EC39F0020EE66E79
:1054B000E66ADC0E146EDD0E7AEC34F002E2E16A8C
:1054C000E552E16E1950020E0A01A627030EAED076
:1054D000E5EC36F001E127D254EC38F02B0EE7CFA3
:1054E000DBFF0A01010EA66F2B0EDB50000801E363
:1054F00093D02B0EDB50146E156A153404E2145051
:10550000F008000E155401E287D0010EDB6A300E60
:10551000E66EE66A010EF9EC34F0830EE66E0C0ED0
:10552000E66EDCEC37F002E2E16AE552E16E17501C
:10553000010EDB2A2B0EDB500C01835D04E0010E13
:10554000DB500308E4E2010EDB50030804E13EEC0B
:1055500039F0830E64D03EEC39F0EF6A95EC37F009
:105560000C019E51E824146E8951E824080F14247C
:10557000E66E0A012DEC39F083CCEFFF3EEC34F0FF
:1055800084CCEFFF3EEC34F085CCEFFF3EEC34F002
:1055900086CCEFFF3EEC34F087CCEFFF0C01885156
:1055A000F00BE842E842E842E842100D88510F0B48
:1055B000F310E66E0A012DEC39F089CCEFFF0C01F7
:1055C000895194EC36F08A0EE66E0C0E99EC35F0AB
:1055D00002E2E16AE552E16E18500C018951020DB8
:1055E000F3500A01A6273EEC34F09ECCEFFF0C01ED
:1055F0009E5194EC36F09F0EE66E0C0E99EC35F051
:1056000002E2E16AE552E16E18500C019E51020D72
:10561000F3500A01A62709D03EEC34F0820EEF6E5B
:1056200095EC37F03EEC34F0EF6A040E20EC37F0E6
:1056300096EC30F0E552E55220D0E5EC36F001E191
:1056400072D1B8EC30F019D0E5EC36F001E16BD155
:10565000F9EC30F0000901E166D10FD0E5EC36F04D
:1056600001E161D163EC34F0840EEF6E95EC37F01C
:105670009DEC36F0E66E2AEC35F04F0EDF6E53D11E
:1056800054EC38F0340EE2EC34F0350EE2EC34F049
:105690002C0EE2EC34F02D0EE2EC34F02E0EE2ECA7
:1056A00034F02F0EE2EC34F0300EE2EC34F0310E38
:1056B000E2EC34F0320EE2EC34F0330EE7CFDBFFF5
:1056C000D9502C0F70EC36F027E1010EDB6A12EC9A
:1056D00038F001E328D101EC35F002E2E16AE5524D
:1056E000E16E175024EC37F0D9502C0F08EC36F04F
:1056F00002E2E16AE5526CEC36F00BE10A0EE66E6E
:10570000D9502C0F2FEC35F002E2E16AE552E16E40
:105710001650010EDB2ADBD7D9502C0F8EEC36F059
:1057200002D1000EE66EE66AB3DBE552E552FAD02E
:10573000030E885D0BE1C5EC35F001E1E7D0360ED4
:10574000F1CCDBFF370EF2CCDBFF06D0360E8ACA77
:10575000DBFF370E8BCADBFFE7EC37F0010EE66E9E
:105760004DEC32F0166E060EE15C02E2E16AE552A3
:10577000E16E1650000901E1C9D074EC38F086CA18
:10578000EFFF360EDBCF8AFA370EDBCF8BFA210E16
:10579000BAD083EC37F00CE025EC39F009E128ECC5
:1057A00037F006E1DFEC38F003E0A9EC37F0EF8CDE
:1057B0007FEC37F001E1B7D060EC39F001E0B3D015
:1057C0000A0128EC37F001E0AED0E9EC38F001E155
:1057D000AAD066D083EC37F01AE025EC39F017E157
:1057E00028EC37F014E128EC38F0800B10E0A9EC3D
:1057F00037F0EF8041EC34F0EF9EE3EC43F000092A
:1058000003E087EC37F01FD087EC37F022D07FEC35
:1058100037F022E08CEC37F0E2EC37F014181CE1A2
:1058200028EC37F019E180EC38F0800B15E0ACEC97
:1058300037F0EF8044EC34F0EF9EE3EC43F00009E6
:1058400006E08CEC37F030EC39F0EF8205D08CECD0
:1058500037F030EC39F0EF9283EC37F010E025ECC4
:1058600039F00DE128EC37F00AE1F3EC38F0010BE8
:1058700006E0DFEC38F057E087EC37F013D07FEC30
:1058800037F051E060EC39F04EE10A0128EC37F0D6
:105890004AE1F6EC38F0010B46E0E9EC38F043E081
:1058A0008CEC37F030EC39F0EF8C3DD0030E885D96
:1058B0000AE1C5EC35F02AE0380EF1CCDBFF390EF9
:1058C000F2CCDBFF06D0380E8ACADBFF390E8BCA5A
:1058D000DBFFE7EC37F0E66A4DEC32F0166E060EB1
:1058E000E15C02E2E16AE552E16E165000090EE069
:1058F00074EC38F086CAEFFF380EDBCF8AFA390E27
:10590000DBCF8BFA220EE66E800E08D0DF6A0BD05A
:1059100063EC34F0840EEF6E9DEC36F0E66E2AEC0C
:1059200035F04F0EDF6E40EC4CF0EFD03C0EDB6AF2
:105930003D0EDB6ADF6A230E0AEC38F03A0EF3CF35
:10594000DBFF3B0EB3EC34F001E1B5D0010EF36E9A
:105950003E0EF3CFDBFF65EC39F0040E72EC39F04C
:10596000040ECBEC35F060EC34F0010EDB6A12EC87
:1059700038F00AE29CEC37F0A0EC34F00F0168EC50
:1059800038F026EC35F0F3D79CEC37F0170E72ECBC
:1059900039F0100E72EC39F0A6EC36F09CEC37F0D2
:1059A000180E60EC34F054EC34F0180EDCEC38F0E7
:1059B0000BE054EC34F0180E61EC38F032E054ECAB
:1059C00034F0120E77EC36F0010EDB6A54EC34F052
:1059D000180E95EC39F003E2CFEC37F0F7D79CECDA
:1059E00037F0190E60EC34F054EC34F0190EDCECA6
:1059F00038F025E054EC34F0190E61EC38F01AE17F
:105A000054EC34F0120E5DEC35F00BE054EC34F055
:105A1000120EFAEC37F054EC34F0120EEB6A130E5F
:105A2000EB6A41EC37F0B9EC34F03A0EDB6A3B0E2E
:105A3000DB6A41D054EC34F0140E77EC36F0010EF2
:105A4000DB6A54EC34F0190E95EC39F003E2CFEC3C
:105A500037F0F7D754EC34F092EC39F0EF8854EC8F
:105A600034F048EC37F054EC34F01C0E33EC39F0E1
:105A70001D0E33EC39F01E0E33EC39F01B0E33ECF7
:105A800039F021EC36F054EC34F0BEEC34F0C7ECD5
:105A900038F0200E91EC37F0EF6A41EC37F0F8D98E
:105AA000E552E552DF6E0A017F0EA76F0A01A99148
:105AB0000A01A66B2AD00A01040E826F0A01A9917D
:105AC0000A017F0EA76F0A01A66B500E1BD028ECAF
:105AD00036F0030E4CEC37F002E2E16AE5526CEC72
:105AE00036F002E0510E0ED0DF6A0FD028EC36F00F
