:020000040000FA
:06000000C0EF00F0120049
:020006001200E6
:0800080007EF00F01200DACF4F
:10001000E4FFE2CFDAFFE6520F010A2B0FCFD6FF43
:1000200010CFD7FFF294E552E5CFDAFF11007E6AD8
:10003000926A896A1200070ED56EE00EF26E0FCF3B
:08004000D6FF10CFD7FF12001C
:0800480001009C0100000A0FF9
:06005000000005000000A5
:0A005600480EF66E000EF76E000E65
:10006000F86E0F010900F550056F0900F550066F95
:1000700003E1056701D03DD00900F550006F09008C
:10008000F550016F0900F550026F09000900F550A5
:10009000E96E0900F550EA6E090009000900F55003
:1000A000036F0900F550046F09000900F6CF07FF40
:1000B000F7CF08FFF8CF09FF00CFF6FF01CFF7FF1A
:1000C00002CFF8FF0F01035302E1045307E00900D8
:1000D000F550EE6E0307F8E20407F9D707CFF6FFF5
:1000E00008CFF7FF09CFF8FF0F010507000E065BE9
:0400F000BFD7120064
:0C00F40017EC00F0D1900F010D510F012E
:100100000F6F0ECF02F0036A02C010FF1BEC00F06D
:100110000FCFD6FF10CFD7FFD58E3C0E0F010A5D53
:1001200006E10A6B0B2B180E0B5D01E10B6B0A0E3F
:100130000B5D06E00B0E0B5D03E00C0E0B5D0EE19C
:100140000C5106E00F0E0A5D02E1896A0C6B06D0C5
:100150000A5104E13F0E896E010E0C6FDED71200CA
:10016000600EF36E00EE00F00F0E01D81200EA6090
:1001700002D0EE6AFCD7F350E9601200EE6AFCD7B9
:100180001EEE00F02EEE00F0F86A019C2BEC00F061
:0C01900003EC00F07AEC00F0FBD712004A
:04019C003B09001FFC
:0101A0001B43
:020000040030CA
:020002001E12CC
:010005008476
:010006008178
:00000001FF
